{
  "address": "0x773330693cb7d5D233348E25809770A32483A940",
  "abi": [
    {
      "inputs": [
        {
          "internalType": "string[3]",
          "name": "tokenUris",
          "type": "string[3]"
        }
      ],
      "stateMutability": "nonpayable",
      "type": "constructor"
    },
    {
      "anonymous": false,
      "inputs": [
        {
          "indexed": true,
          "internalType": "address",
          "name": "owner",
          "type": "address"
        },
        {
          "indexed": true,
          "internalType": "address",
          "name": "approved",
          "type": "address"
        },
        {
          "indexed": true,
          "internalType": "uint256",
          "name": "tokenId",
          "type": "uint256"
        }
      ],
      "name": "Approval",
      "type": "event"
    },
    {
      "anonymous": false,
      "inputs": [
        {
          "indexed": true,
          "internalType": "address",
          "name": "owner",
          "type": "address"
        },
        {
          "indexed": true,
          "internalType": "address",
          "name": "operator",
          "type": "address"
        },
        {
          "indexed": false,
          "internalType": "bool",
          "name": "approved",
          "type": "bool"
        }
      ],
      "name": "ApprovalForAll",
      "type": "event"
    },
    {
      "anonymous": false,
      "inputs": [
        {
          "indexed": true,
          "internalType": "address",
          "name": "from",
          "type": "address"
        },
        {
          "indexed": true,
          "internalType": "address",
          "name": "to",
          "type": "address"
        },
        {
          "indexed": true,
          "internalType": "uint256",
          "name": "tokenId",
          "type": "uint256"
        }
      ],
      "name": "Transfer",
      "type": "event"
    },
    {
      "inputs": [
        {
          "internalType": "address",
          "name": "to",
          "type": "address"
        },
        {
          "internalType": "uint256",
          "name": "tokenId",
          "type": "uint256"
        }
      ],
      "name": "approve",
      "outputs": [],
      "stateMutability": "nonpayable",
      "type": "function"
    },
    {
      "inputs": [
        {
          "internalType": "address",
          "name": "owner",
          "type": "address"
        }
      ],
      "name": "balanceOf",
      "outputs": [
        {
          "internalType": "uint256",
          "name": "",
          "type": "uint256"
        }
      ],
      "stateMutability": "view",
      "type": "function"
    },
    {
      "inputs": [
        {
          "internalType": "uint256",
          "name": "tokenId",
          "type": "uint256"
        }
      ],
      "name": "getApproved",
      "outputs": [
        {
          "internalType": "address",
          "name": "",
          "type": "address"
        }
      ],
      "stateMutability": "view",
      "type": "function"
    },
    {
      "inputs": [],
      "name": "getTokenCounter",
      "outputs": [
        {
          "internalType": "uint256",
          "name": "",
          "type": "uint256"
        }
      ],
      "stateMutability": "view",
      "type": "function"
    },
    {
      "inputs": [
        {
          "internalType": "address",
          "name": "owner",
          "type": "address"
        },
        {
          "internalType": "address",
          "name": "operator",
          "type": "address"
        }
      ],
      "name": "isApprovedForAll",
      "outputs": [
        {
          "internalType": "bool",
          "name": "",
          "type": "bool"
        }
      ],
      "stateMutability": "view",
      "type": "function"
    },
    {
      "inputs": [
        {
          "internalType": "uint256",
          "name": "_type",
          "type": "uint256"
        },
        {
          "internalType": "address",
          "name": "owner",
          "type": "address"
        }
      ],
      "name": "mint",
      "outputs": [
        {
          "internalType": "uint256",
          "name": "tokenId",
          "type": "uint256"
        }
      ],
      "stateMutability": "payable",
      "type": "function"
    },
    {
      "inputs": [],
      "name": "name",
      "outputs": [
        {
          "internalType": "string",
          "name": "",
          "type": "string"
        }
      ],
      "stateMutability": "view",
      "type": "function"
    },
    {
      "inputs": [
        {
          "internalType": "uint256",
          "name": "tokenId",
          "type": "uint256"
        }
      ],
      "name": "ownerOf",
      "outputs": [
        {
          "internalType": "address",
          "name": "",
          "type": "address"
        }
      ],
      "stateMutability": "view",
      "type": "function"
    },
    {
      "inputs": [
        {
          "internalType": "uint256",
          "name": "",
          "type": "uint256"
        }
      ],
      "name": "s_requestIdToSender",
      "outputs": [
        {
          "internalType": "address",
          "name": "",
          "type": "address"
        }
      ],
      "stateMutability": "view",
      "type": "function"
    },
    {
      "inputs": [
        {
          "internalType": "address",
          "name": "from",
          "type": "address"
        },
        {
          "internalType": "address",
          "name": "to",
          "type": "address"
        },
        {
          "internalType": "uint256",
          "name": "tokenId",
          "type": "uint256"
        }
      ],
      "name": "safeTransferFrom",
      "outputs": [],
      "stateMutability": "nonpayable",
      "type": "function"
    },
    {
      "inputs": [
        {
          "internalType": "address",
          "name": "from",
          "type": "address"
        },
        {
          "internalType": "address",
          "name": "to",
          "type": "address"
        },
        {
          "internalType": "uint256",
          "name": "tokenId",
          "type": "uint256"
        },
        {
          "internalType": "bytes",
          "name": "data",
          "type": "bytes"
        }
      ],
      "name": "safeTransferFrom",
      "outputs": [],
      "stateMutability": "nonpayable",
      "type": "function"
    },
    {
      "inputs": [
        {
          "internalType": "address",
          "name": "operator",
          "type": "address"
        },
        {
          "internalType": "bool",
          "name": "approved",
          "type": "bool"
        }
      ],
      "name": "setApprovalForAll",
      "outputs": [],
      "stateMutability": "nonpayable",
      "type": "function"
    },
    {
      "inputs": [
        {
          "internalType": "bytes4",
          "name": "interfaceId",
          "type": "bytes4"
        }
      ],
      "name": "supportsInterface",
      "outputs": [
        {
          "internalType": "bool",
          "name": "",
          "type": "bool"
        }
      ],
      "stateMutability": "view",
      "type": "function"
    },
    {
      "inputs": [],
      "name": "symbol",
      "outputs": [
        {
          "internalType": "string",
          "name": "",
          "type": "string"
        }
      ],
      "stateMutability": "view",
      "type": "function"
    },
    {
      "inputs": [
        {
          "internalType": "uint256",
          "name": "tokenId",
          "type": "uint256"
        }
      ],
      "name": "tokenURI",
      "outputs": [
        {
          "internalType": "string",
          "name": "",
          "type": "string"
        }
      ],
      "stateMutability": "view",
      "type": "function"
    },
    {
      "inputs": [
        {
          "internalType": "address",
          "name": "from",
          "type": "address"
        },
        {
          "internalType": "address",
          "name": "to",
          "type": "address"
        },
        {
          "internalType": "uint256",
          "name": "tokenId",
          "type": "uint256"
        }
      ],
      "name": "transferFrom",
      "outputs": [],
      "stateMutability": "nonpayable",
      "type": "function"
    }
  ],
  "transactionHash": "0xe51012e6313ede43fdbf22ff6447dcf7560ec8ade2fcb2e52fab49d533981d79",
  "args": [
    [
      "https://ipfs.io/ipfs/QmZjgbNwQLFmbvoKdBRUjYZSGGY1dnuZCzYDg34Vk79vRs",
      "https://ipfs.io/ipfs/QmadRJjCCH55pm9xhkA3VGhMDhNspnjxoZGxifjEivdQua",
      "https://ipfs.io/ipfs/QmUCTXYXeL56J3vYmaTSNvgPAE3HuBZk3tLM8AeNPeJHkF"
    ]
  ],
  "numDeployments": 1,
  "solcInputHash": "d53f116bcd6935aac26ca2f98a537ebe",
  "bytecode": "0x60806040523480156200001157600080fd5b5060405162003036380380620030368339818101604052810190620000379190620004f1565b6040518060400160405280600781526020017f4d79546f6b656e000000000000000000000000000000000000000000000000008152506040518060400160405280600381526020017f4d544b00000000000000000000000000000000000000000000000000000000008152508160009080519060200190620000bb929190620000f2565b508060019080519060200190620000d4929190620000f2565b505050806007906003620000ea92919062000183565b5050620005a7565b828054620001009062000571565b90600052602060002090601f01602090048101928262000124576000855562000170565b82601f106200013f57805160ff191683800117855562000170565b8280016001018555821562000170579182015b828111156200016f57825182559160200191906001019062000152565b5b5090506200017f9190620001dd565b5090565b8260038101928215620001ca579160200282015b82811115620001c9578251829080519060200190620001b8929190620000f2565b509160200191906001019062000197565b5b509050620001d99190620001fc565b5090565b5b80821115620001f8576000816000905550600101620001de565b5090565b5b8082111562000220576000818162000216919062000224565b50600101620001fd565b5090565b508054620002329062000571565b6000825580601f1062000246575062000267565b601f016020900490600052602060002090810190620002669190620001dd565b5b50565b6000604051905090565b600080fd5b600080fd5b600080fd5b6000601f19601f8301169050919050565b7f4e487b7100000000000000000000000000000000000000000000000000000000600052604160045260246000fd5b620002ce8262000283565b810181811067ffffffffffffffff82111715620002f057620002ef62000294565b5b80604052505050565b6000620003056200026a565b9050620003138282620002c3565b919050565b600067ffffffffffffffff82111562000336576200033562000294565b5b602082029050919050565b600080fd5b600080fd5b600067ffffffffffffffff82111562000369576200036862000294565b5b620003748262000283565b9050602081019050919050565b60005b83811015620003a157808201518184015260208101905062000384565b83811115620003b1576000848401525b50505050565b6000620003ce620003c8846200034b565b620002f9565b905082815260208101848484011115620003ed57620003ec62000346565b5b620003fa84828562000381565b509392505050565b600082601f8301126200041a57620004196200027e565b5b81516200042c848260208601620003b7565b91505092915050565b60006200044c620004468462000318565b620002f9565b9050806020840283018581111562000469576200046862000341565b5b835b81811015620004b757805167ffffffffffffffff8111156200049257620004916200027e565b5b808601620004a1898262000402565b855260208501945050506020810190506200046b565b5050509392505050565b600082601f830112620004d957620004d86200027e565b5b6003620004e884828562000435565b91505092915050565b6000602082840312156200050a576200050962000274565b5b600082015167ffffffffffffffff8111156200052b576200052a62000279565b5b6200053984828501620004c1565b91505092915050565b7f4e487b7100000000000000000000000000000000000000000000000000000000600052602260045260246000fd5b600060028204905060018216806200058a57607f821691505b60208210811415620005a157620005a062000542565b5b50919050565b612a7f80620005b76000396000f3fe6080604052600436106100f35760003560e01c806370a082311161008a578063a36f573b11610059578063a36f573b14610341578063b88d4fde1461037e578063c87b56dd146103a7578063e985e9c5146103e4576100f3565b806370a082311461028057806394bf804d146102bd57806395d89b41146102ed578063a22cb46514610318576100f3565b806323b872dd116100c657806323b872dd146101c657806342842e0e146101ef5780636352211e146102185780636e02007d14610255576100f3565b806301ffc9a7146100f857806306fdde0314610135578063081812fc14610160578063095ea7b31461019d575b600080fd5b34801561010457600080fd5b5061011f600480360381019061011a9190611c70565b610421565b60405161012c9190611cb8565b60405180910390f35b34801561014157600080fd5b5061014a610503565b6040516101579190611d6c565b60405180910390f35b34801561016c57600080fd5b5061018760048036038101906101829190611dc4565b610595565b6040516101949190611e32565b60405180910390f35b3480156101a957600080fd5b506101c460048036038101906101bf9190611e79565b6105db565b005b3480156101d257600080fd5b506101ed60048036038101906101e89190611eb9565b6106f3565b005b3480156101fb57600080fd5b5061021660048036038101906102119190611eb9565b610753565b005b34801561022457600080fd5b5061023f600480360381019061023a9190611dc4565b610773565b60405161024c9190611e32565b60405180910390f35b34801561026157600080fd5b5061026a6107fa565b6040516102779190611f1b565b60405180910390f35b34801561028c57600080fd5b506102a760048036038101906102a29190611f36565b61080b565b6040516102b49190611f1b565b60405180910390f35b6102d760048036038101906102d29190611f63565b6108c3565b6040516102e49190611f1b565b60405180910390f35b3480156102f957600080fd5b50610302610992565b60405161030f9190611d6c565b60405180910390f35b34801561032457600080fd5b5061033f600480360381019061033a9190611fcf565b610a24565b005b34801561034d57600080fd5b5061036860048036038101906103639190611dc4565b610a3a565b6040516103759190611e32565b60405180910390f35b34801561038a57600080fd5b506103a560048036038101906103a09190612144565b610a6d565b005b3480156103b357600080fd5b506103ce60048036038101906103c99190611dc4565b610acf565b6040516103db9190611d6c565b60405180910390f35b3480156103f057600080fd5b5061040b600480360381019061040691906121c7565b610be2565b6040516104189190611cb8565b60405180910390f35b60007f80ac58cd000000000000000000000000000000000000000000000000000000007bffffffffffffffffffffffffffffffffffffffffffffffffffffffff1916827bffffffffffffffffffffffffffffffffffffffffffffffffffffffff191614806104ec57507f5b5e139f000000000000000000000000000000000000000000000000000000007bffffffffffffffffffffffffffffffffffffffffffffffffffffffff1916827bffffffffffffffffffffffffffffffffffffffffffffffffffffffff1916145b806104fc57506104fb82610c76565b5b9050919050565b60606000805461051290612236565b80601f016020809104026020016040519081016040528092919081815260200182805461053e90612236565b801561058b5780601f106105605761010080835404028352916020019161058b565b820191906000526020600020905b81548152906001019060200180831161056e57829003601f168201915b5050505050905090565b60006105a082610ce0565b6004600083815260200190815260200160002060009054906101000a900473ffffffffffffffffffffffffffffffffffffffff169050919050565b60006105e682610773565b90508073ffffffffffffffffffffffffffffffffffffffff168373ffffffffffffffffffffffffffffffffffffffff161415610657576040517f08c379a000000000000000000000000000000000000000000000000000000000815260040161064e906122da565b60405180910390fd5b8073ffffffffffffffffffffffffffffffffffffffff16610676610d2b565b73ffffffffffffffffffffffffffffffffffffffff1614806106a557506106a48161069f610d2b565b610be2565b5b6106e4576040517f08c379a00000000000000000000000000000000000000000000000000000000081526004016106db9061236c565b60405180910390fd5b6106ee8383610d33565b505050565b6107046106fe610d2b565b82610dec565b610743576040517f08c379a000000000000000000000000000000000000000000000000000000000815260040161073a906123fe565b60405180910390fd5b61074e838383610e81565b505050565b61076e83838360405180602001604052806000815250610a6d565b505050565b60008061077f8361117b565b9050600073ffffffffffffffffffffffffffffffffffffffff168173ffffffffffffffffffffffffffffffffffffffff1614156107f1576040517f08c379a00000000000000000000000000000000000000000000000000000000081526004016107e89061246a565b60405180910390fd5b80915050919050565b6000610806600b6111b8565b905090565b60008073ffffffffffffffffffffffffffffffffffffffff168273ffffffffffffffffffffffffffffffffffffffff16141561087c576040517f08c379a0000000000000000000000000000000000000000000000000000000008152600401610873906124fc565b60405180910390fd5b600360008373ffffffffffffffffffffffffffffffffffffffff1673ffffffffffffffffffffffffffffffffffffffff168152602001908152602001600020549050919050565b60006108cf600b6111b8565b90506108db600b6111c6565b6108e582826111dc565b61098c81600785600381106108fd576108fc61251c565b5b01805461090990612236565b80601f016020809104026020016040519081016040528092919081815260200182805461093590612236565b80156109825780601f1061095757610100808354040283529160200191610982565b820191906000526020600020905b81548152906001019060200180831161096557829003601f168201915b50505050506111fa565b92915050565b6060600180546109a190612236565b80601f01602080910402602001604051908101604052809291908181526020018280546109cd90612236565b8015610a1a5780601f106109ef57610100808354040283529160200191610a1a565b820191906000526020600020905b8154815290600101906020018083116109fd57829003601f168201915b5050505050905090565b610a36610a2f610d2b565b838361126e565b5050565b600a6020528060005260406000206000915054906101000a900473ffffffffffffffffffffffffffffffffffffffff1681565b610a7e610a78610d2b565b83610dec565b610abd576040517f08c379a0000000000000000000000000000000000000000000000000000000008152600401610ab4906123fe565b60405180910390fd5b610ac9848484846113db565b50505050565b6060610ada82610ce0565b6000600660008481526020019081526020016000208054610afa90612236565b80601f0160208091040260200160405190810160405280929190818152602001828054610b2690612236565b8015610b735780601f10610b4857610100808354040283529160200191610b73565b820191906000526020600020905b815481529060010190602001808311610b5657829003601f168201915b505050505090506000610b84611437565b9050600081511415610b9a578192505050610bdd565b600082511115610bcf578082604051602001610bb7929190612587565b60405160208183030381529060405292505050610bdd565b610bd88461144e565b925050505b919050565b6000600560008473ffffffffffffffffffffffffffffffffffffffff1673ffffffffffffffffffffffffffffffffffffffff16815260200190815260200160002060008373ffffffffffffffffffffffffffffffffffffffff1673ffffffffffffffffffffffffffffffffffffffff16815260200190815260200160002060009054906101000a900460ff16905092915050565b60007f01ffc9a7000000000000000000000000000000000000000000000000000000007bffffffffffffffffffffffffffffffffffffffffffffffffffffffff1916827bffffffffffffffffffffffffffffffffffffffffffffffffffffffff1916149050919050565b610ce9816114b6565b610d28576040517f08c379a0000000000000000000000000000000000000000000000000000000008152600401610d1f9061246a565b60405180910390fd5b50565b600033905090565b816004600083815260200190815260200160002060006101000a81548173ffffffffffffffffffffffffffffffffffffffff021916908373ffffffffffffffffffffffffffffffffffffffff160217905550808273ffffffffffffffffffffffffffffffffffffffff16610da683610773565b73ffffffffffffffffffffffffffffffffffffffff167f8c5be1e5ebec7d5bd14f71427d1e84f3dd0314c0f7b2291e5b200ac8c7c3b92560405160405180910390a45050565b600080610df883610773565b90508073ffffffffffffffffffffffffffffffffffffffff168473ffffffffffffffffffffffffffffffffffffffff161480610e3a5750610e398185610be2565b5b80610e7857508373ffffffffffffffffffffffffffffffffffffffff16610e6084610595565b73ffffffffffffffffffffffffffffffffffffffff16145b91505092915050565b8273ffffffffffffffffffffffffffffffffffffffff16610ea182610773565b73ffffffffffffffffffffffffffffffffffffffff1614610ef7576040517f08c379a0000000000000000000000000000000000000000000000000000000008152600401610eee9061261d565b60405180910390fd5b600073ffffffffffffffffffffffffffffffffffffffff168273ffffffffffffffffffffffffffffffffffffffff161415610f67576040517f08c379a0000000000000000000000000000000000000000000000000000000008152600401610f5e906126af565b60405180910390fd5b610f7483838360016114f7565b8273ffffffffffffffffffffffffffffffffffffffff16610f9482610773565b73ffffffffffffffffffffffffffffffffffffffff1614610fea576040517f08c379a0000000000000000000000000000000000000000000000000000000008152600401610fe19061261d565b60405180910390fd5b6004600082815260200190815260200160002060006101000a81549073ffffffffffffffffffffffffffffffffffffffff02191690556001600360008573ffffffffffffffffffffffffffffffffffffffff1673ffffffffffffffffffffffffffffffffffffffff168152602001908152602001600020600082825403925050819055506001600360008473ffffffffffffffffffffffffffffffffffffffff1673ffffffffffffffffffffffffffffffffffffffff16815260200190815260200160002060008282540192505081905550816002600083815260200190815260200160002060006101000a81548173ffffffffffffffffffffffffffffffffffffffff021916908373ffffffffffffffffffffffffffffffffffffffff160217905550808273ffffffffffffffffffffffffffffffffffffffff168473ffffffffffffffffffffffffffffffffffffffff167fddf252ad1be2c89b69c2b068fc378daa952ba7f163c4a11628f55a4df523b3ef60405160405180910390a461117683838360016114fd565b505050565b60006002600083815260200190815260200160002060009054906101000a900473ffffffffffffffffffffffffffffffffffffffff169050919050565b600081600001549050919050565b6001816000016000828254019250508190555050565b6111f6828260405180602001604052806000815250611503565b5050565b611203826114b6565b611242576040517f08c379a000000000000000000000000000000000000000000000000000000000815260040161123990612741565b60405180910390fd5b80600660008481526020019081526020016000209080519060200190611269929190611b61565b505050565b8173ffffffffffffffffffffffffffffffffffffffff168373ffffffffffffffffffffffffffffffffffffffff1614156112dd576040517f08c379a00000000000000000000000000000000000000000000000000000000081526004016112d4906127ad565b60405180910390fd5b80600560008573ffffffffffffffffffffffffffffffffffffffff1673ffffffffffffffffffffffffffffffffffffffff16815260200190815260200160002060008473ffffffffffffffffffffffffffffffffffffffff1673ffffffffffffffffffffffffffffffffffffffff16815260200190815260200160002060006101000a81548160ff0219169083151502179055508173ffffffffffffffffffffffffffffffffffffffff168373ffffffffffffffffffffffffffffffffffffffff167f17307eab39ab6107e8899845ad3d59bd9653f200f220920489ca2b5937696c31836040516113ce9190611cb8565b60405180910390a3505050565b6113e6848484610e81565b6113f28484848461155e565b611431576040517f08c379a00000000000000000000000000000000000000000000000000000000081526004016114289061283f565b60405180910390fd5b50505050565b606060405180602001604052806000815250905090565b606061145982610ce0565b6000611463611437565b9050600081511161148357604051806020016040528060008152506114ae565b8061148d846116f5565b60405160200161149e929190612587565b6040516020818303038152906040525b915050919050565b60008073ffffffffffffffffffffffffffffffffffffffff166114d88361117b565b73ffffffffffffffffffffffffffffffffffffffff1614159050919050565b50505050565b50505050565b61150d83836117cd565b61151a600084848461155e565b611559576040517f08c379a00000000000000000000000000000000000000000000000000000000081526004016115509061283f565b60405180910390fd5b505050565b600061157f8473ffffffffffffffffffffffffffffffffffffffff166119eb565b156116e8578373ffffffffffffffffffffffffffffffffffffffff1663150b7a026115a8610d2b565b8786866040518563ffffffff1660e01b81526004016115ca94939291906128b4565b602060405180830381600087803b1580156115e457600080fd5b505af192505050801561161557506040513d601f19601f820116820180604052508101906116129190612915565b60015b611698573d8060008114611645576040519150601f19603f3d011682016040523d82523d6000602084013e61164a565b606091505b50600081511415611690576040517f08c379a00000000000000000000000000000000000000000000000000000000081526004016116879061283f565b60405180910390fd5b805181602001fd5b63150b7a0260e01b7bffffffffffffffffffffffffffffffffffffffffffffffffffffffff1916817bffffffffffffffffffffffffffffffffffffffffffffffffffffffff1916149150506116ed565b600190505b949350505050565b60606000600161170484611a0e565b01905060008167ffffffffffffffff81111561172357611722612019565b5b6040519080825280601f01601f1916602001820160405280156117555781602001600182028036833780820191505090505b509050600082602001820190505b6001156117c2578080600190039150507f3031323334353637383961626364656600000000000000000000000000000000600a86061a8153600a85816117ac576117ab612942565b5b04945060008514156117bd576117c2565b611763565b819350505050919050565b600073ffffffffffffffffffffffffffffffffffffffff168273ffffffffffffffffffffffffffffffffffffffff16141561183d576040517f08c379a0000000000000000000000000000000000000000000000000000000008152600401611834906129bd565b60405180910390fd5b611846816114b6565b15611886576040517f08c379a000000000000000000000000000000000000000000000000000000000815260040161187d90612a29565b60405180910390fd5b6118946000838360016114f7565b61189d816114b6565b156118dd576040517f08c379a00000000000000000000000000000000000000000000000000000000081526004016118d490612a29565b60405180910390fd5b6001600360008473ffffffffffffffffffffffffffffffffffffffff1673ffffffffffffffffffffffffffffffffffffffff16815260200190815260200160002060008282540192505081905550816002600083815260200190815260200160002060006101000a81548173ffffffffffffffffffffffffffffffffffffffff021916908373ffffffffffffffffffffffffffffffffffffffff160217905550808273ffffffffffffffffffffffffffffffffffffffff16600073ffffffffffffffffffffffffffffffffffffffff167fddf252ad1be2c89b69c2b068fc378daa952ba7f163c4a11628f55a4df523b3ef60405160405180910390a46119e76000838360016114fd565b5050565b6000808273ffffffffffffffffffffffffffffffffffffffff163b119050919050565b600080600090507a184f03e93ff9f4daa797ed6e38ed64bf6a1f0100000000000000008310611a6c577a184f03e93ff9f4daa797ed6e38ed64bf6a1f0100000000000000008381611a6257611a61612942565b5b0492506040810190505b6d04ee2d6d415b85acef81000000008310611aa9576d04ee2d6d415b85acef81000000008381611a9f57611a9e612942565b5b0492506020810190505b662386f26fc100008310611ad857662386f26fc100008381611ace57611acd612942565b5b0492506010810190505b6305f5e1008310611b01576305f5e1008381611af757611af6612942565b5b0492506008810190505b6127108310611b26576127108381611b1c57611b1b612942565b5b0492506004810190505b60648310611b495760648381611b3f57611b3e612942565b5b0492506002810190505b600a8310611b58576001810190505b80915050919050565b828054611b6d90612236565b90600052602060002090601f016020900481019282611b8f5760008555611bd6565b82601f10611ba857805160ff1916838001178555611bd6565b82800160010185558215611bd6579182015b82811115611bd5578251825591602001919060010190611bba565b5b509050611be39190611be7565b5090565b5b80821115611c00576000816000905550600101611be8565b5090565b6000604051905090565b600080fd5b600080fd5b60007fffffffff0000000000000000000000000000000000000000000000000000000082169050919050565b611c4d81611c18565b8114611c5857600080fd5b50565b600081359050611c6a81611c44565b92915050565b600060208284031215611c8657611c85611c0e565b5b6000611c9484828501611c5b565b91505092915050565b60008115159050919050565b611cb281611c9d565b82525050565b6000602082019050611ccd6000830184611ca9565b92915050565b600081519050919050565b600082825260208201905092915050565b60005b83811015611d0d578082015181840152602081019050611cf2565b83811115611d1c576000848401525b50505050565b6000601f19601f8301169050919050565b6000611d3e82611cd3565b611d488185611cde565b9350611d58818560208601611cef565b611d6181611d22565b840191505092915050565b60006020820190508181036000830152611d868184611d33565b905092915050565b6000819050919050565b611da181611d8e565b8114611dac57600080fd5b50565b600081359050611dbe81611d98565b92915050565b600060208284031215611dda57611dd9611c0e565b5b6000611de884828501611daf565b91505092915050565b600073ffffffffffffffffffffffffffffffffffffffff82169050919050565b6000611e1c82611df1565b9050919050565b611e2c81611e11565b82525050565b6000602082019050611e476000830184611e23565b92915050565b611e5681611e11565b8114611e6157600080fd5b50565b600081359050611e7381611e4d565b92915050565b60008060408385031215611e9057611e8f611c0e565b5b6000611e9e85828601611e64565b9250506020611eaf85828601611daf565b9150509250929050565b600080600060608486031215611ed257611ed1611c0e565b5b6000611ee086828701611e64565b9350506020611ef186828701611e64565b9250506040611f0286828701611daf565b9150509250925092565b611f1581611d8e565b82525050565b6000602082019050611f306000830184611f0c565b92915050565b600060208284031215611f4c57611f4b611c0e565b5b6000611f5a84828501611e64565b91505092915050565b60008060408385031215611f7a57611f79611c0e565b5b6000611f8885828601611daf565b9250506020611f9985828601611e64565b9150509250929050565b611fac81611c9d565b8114611fb757600080fd5b50565b600081359050611fc981611fa3565b92915050565b60008060408385031215611fe657611fe5611c0e565b5b6000611ff485828601611e64565b925050602061200585828601611fba565b9150509250929050565b600080fd5b600080fd5b7f4e487b7100000000000000000000000000000000000000000000000000000000600052604160045260246000fd5b61205182611d22565b810181811067ffffffffffffffff821117156120705761206f612019565b5b80604052505050565b6000612083611c04565b905061208f8282612048565b919050565b600067ffffffffffffffff8211156120af576120ae612019565b5b6120b882611d22565b9050602081019050919050565b82818337600083830152505050565b60006120e76120e284612094565b612079565b90508281526020810184848401111561210357612102612014565b5b61210e8482856120c5565b509392505050565b600082601f83011261212b5761212a61200f565b5b813561213b8482602086016120d4565b91505092915050565b6000806000806080858703121561215e5761215d611c0e565b5b600061216c87828801611e64565b945050602061217d87828801611e64565b935050604061218e87828801611daf565b925050606085013567ffffffffffffffff8111156121af576121ae611c13565b5b6121bb87828801612116565b91505092959194509250565b600080604083850312156121de576121dd611c0e565b5b60006121ec85828601611e64565b92505060206121fd85828601611e64565b9150509250929050565b7f4e487b7100000000000000000000000000000000000000000000000000000000600052602260045260246000fd5b6000600282049050600182168061224e57607f821691505b6020821081141561226257612261612207565b5b50919050565b7f4552433732313a20617070726f76616c20746f2063757272656e74206f776e6560008201527f7200000000000000000000000000000000000000000000000000000000000000602082015250565b60006122c4602183611cde565b91506122cf82612268565b604082019050919050565b600060208201905081810360008301526122f3816122b7565b9050919050565b7f4552433732313a20617070726f76652063616c6c6572206973206e6f7420746f60008201527f6b656e206f776e6572206f7220617070726f76656420666f7220616c6c000000602082015250565b6000612356603d83611cde565b9150612361826122fa565b604082019050919050565b6000602082019050818103600083015261238581612349565b9050919050565b7f4552433732313a2063616c6c6572206973206e6f7420746f6b656e206f776e6560008201527f72206f7220617070726f76656400000000000000000000000000000000000000602082015250565b60006123e8602d83611cde565b91506123f38261238c565b604082019050919050565b60006020820190508181036000830152612417816123db565b9050919050565b7f4552433732313a20696e76616c696420746f6b656e2049440000000000000000600082015250565b6000612454601883611cde565b915061245f8261241e565b602082019050919050565b6000602082019050818103600083015261248381612447565b9050919050565b7f4552433732313a2061646472657373207a65726f206973206e6f74206120766160008201527f6c6964206f776e65720000000000000000000000000000000000000000000000602082015250565b60006124e6602983611cde565b91506124f18261248a565b604082019050919050565b60006020820190508181036000830152612515816124d9565b9050919050565b7f4e487b7100000000000000000000000000000000000000000000000000000000600052603260045260246000fd5b600081905092915050565b600061256182611cd3565b61256b818561254b565b935061257b818560208601611cef565b80840191505092915050565b60006125938285612556565b915061259f8284612556565b91508190509392505050565b7f4552433732313a207472616e736665722066726f6d20696e636f72726563742060008201527f6f776e6572000000000000000000000000000000000000000000000000000000602082015250565b6000612607602583611cde565b9150612612826125ab565b604082019050919050565b60006020820190508181036000830152612636816125fa565b9050919050565b7f4552433732313a207472616e7366657220746f20746865207a65726f2061646460008201527f7265737300000000000000000000000000000000000000000000000000000000602082015250565b6000612699602483611cde565b91506126a48261263d565b604082019050919050565b600060208201905081810360008301526126c88161268c565b9050919050565b7f45524337323155524953746f726167653a2055524920736574206f66206e6f6e60008201527f6578697374656e7420746f6b656e000000000000000000000000000000000000602082015250565b600061272b602e83611cde565b9150612736826126cf565b604082019050919050565b6000602082019050818103600083015261275a8161271e565b9050919050565b7f4552433732313a20617070726f766520746f2063616c6c657200000000000000600082015250565b6000612797601983611cde565b91506127a282612761565b602082019050919050565b600060208201905081810360008301526127c68161278a565b9050919050565b7f4552433732313a207472616e7366657220746f206e6f6e20455243373231526560008201527f63656976657220696d706c656d656e7465720000000000000000000000000000602082015250565b6000612829603283611cde565b9150612834826127cd565b604082019050919050565b600060208201905081810360008301526128588161281c565b9050919050565b600081519050919050565b600082825260208201905092915050565b60006128868261285f565b612890818561286a565b93506128a0818560208601611cef565b6128a981611d22565b840191505092915050565b60006080820190506128c96000830187611e23565b6128d66020830186611e23565b6128e36040830185611f0c565b81810360608301526128f5818461287b565b905095945050505050565b60008151905061290f81611c44565b92915050565b60006020828403121561292b5761292a611c0e565b5b600061293984828501612900565b91505092915050565b7f4e487b7100000000000000000000000000000000000000000000000000000000600052601260045260246000fd5b7f4552433732313a206d696e7420746f20746865207a65726f2061646472657373600082015250565b60006129a7602083611cde565b91506129b282612971565b602082019050919050565b600060208201905081810360008301526129d68161299a565b9050919050565b7f4552433732313a20746f6b656e20616c7265616479206d696e74656400000000600082015250565b6000612a13601c83611cde565b9150612a1e826129dd565b602082019050919050565b60006020820190508181036000830152612a4281612a06565b905091905056fea2646970667358221220147275629b12842b9a86601ee410a41b0832ba74b944210a3f8a8f04e484e59464736f6c63430008090033",
  "devdoc": {
    "kind": "dev",
    "methods": {
      "approve(address,uint256)": {
        "details": "See {IERC721-approve}."
      },
      "balanceOf(address)": {
        "details": "See {IERC721-balanceOf}."
      },
      "getApproved(uint256)": {
        "details": "See {IERC721-getApproved}."
      },
      "isApprovedForAll(address,address)": {
        "details": "See {IERC721-isApprovedForAll}."
      },
      "name()": {
        "details": "See {IERC721Metadata-name}."
      },
      "ownerOf(uint256)": {
        "details": "See {IERC721-ownerOf}."
      },
      "safeTransferFrom(address,address,uint256)": {
        "details": "See {IERC721-safeTransferFrom}."
      },
      "safeTransferFrom(address,address,uint256,bytes)": {
        "details": "See {IERC721-safeTransferFrom}."
      },
      "setApprovalForAll(address,bool)": {
        "details": "See {IERC721-setApprovalForAll}."
      },
      "supportsInterface(bytes4)": {
        "details": "See {IERC165-supportsInterface}."
      },
      "symbol()": {
        "details": "See {IERC721Metadata-symbol}."
      },
      "tokenURI(uint256)": {
        "details": "See {IERC721Metadata-tokenURI}."
      },
      "transferFrom(address,address,uint256)": {
        "details": "See {IERC721-transferFrom}."
      }
    },
    "version": 1
  },
  "userdoc": {
    "kind": "user",
    "methods": {},
    "version": 1
  },
  "storageLayout": {
    "storage": [
      {
        "astId": 1304,
        "contract": "contracts/Nft.sol:Nft",
        "label": "_name",
        "offset": 0,
        "slot": "0",
        "type": "t_string_storage"
      },
      {
        "astId": 1306,
        "contract": "contracts/Nft.sol:Nft",
        "label": "_symbol",
        "offset": 0,
        "slot": "1",
        "type": "t_string_storage"
      },
      {
        "astId": 1310,
        "contract": "contracts/Nft.sol:Nft",
        "label": "_owners",
        "offset": 0,
        "slot": "2",
        "type": "t_mapping(t_uint256,t_address)"
      },
      {
        "astId": 1314,
        "contract": "contracts/Nft.sol:Nft",
        "label": "_balances",
        "offset": 0,
        "slot": "3",
        "type": "t_mapping(t_address,t_uint256)"
      },
      {
        "astId": 1318,
        "contract": "contracts/Nft.sol:Nft",
        "label": "_tokenApprovals",
        "offset": 0,
        "slot": "4",
        "type": "t_mapping(t_uint256,t_address)"
      },
      {
        "astId": 1324,
        "contract": "contracts/Nft.sol:Nft",
        "label": "_operatorApprovals",
        "offset": 0,
        "slot": "5",
        "type": "t_mapping(t_address,t_mapping(t_address,t_bool))"
      },
      {
        "astId": 2352,
        "contract": "contracts/Nft.sol:Nft",
        "label": "_tokenURIs",
        "offset": 0,
        "slot": "6",
        "type": "t_mapping(t_uint256,t_string_storage)"
      },
      {
        "astId": 4003,
        "contract": "contracts/Nft.sol:Nft",
        "label": "s_tokenUris",
        "offset": 0,
        "slot": "7",
        "type": "t_array(t_string_storage)3_storage"
      },
      {
        "astId": 4007,
        "contract": "contracts/Nft.sol:Nft",
        "label": "s_requestIdToSender",
        "offset": 0,
        "slot": "10",
        "type": "t_mapping(t_uint256,t_address)"
      },
      {
        "astId": 4014,
        "contract": "contracts/Nft.sol:Nft",
        "label": "_tokenIdCounter",
        "offset": 0,
        "slot": "11",
        "type": "t_struct(Counter)2849_storage"
      }
    ],
    "types": {
      "t_address": {
        "encoding": "inplace",
        "label": "address",
        "numberOfBytes": "20"
      },
      "t_array(t_string_storage)3_storage": {
        "base": "t_string_storage",
        "encoding": "inplace",
        "label": "string[3]",
        "numberOfBytes": "96"
      },
      "t_bool": {
        "encoding": "inplace",
        "label": "bool",
        "numberOfBytes": "1"
      },
      "t_mapping(t_address,t_bool)": {
        "encoding": "mapping",
        "key": "t_address",
        "label": "mapping(address => bool)",
        "numberOfBytes": "32",
        "value": "t_bool"
      },
      "t_mapping(t_address,t_mapping(t_address,t_bool))": {
        "encoding": "mapping",
        "key": "t_address",
        "label": "mapping(address => mapping(address => bool))",
        "numberOfBytes": "32",
        "value": "t_mapping(t_address,t_bool)"
      },
      "t_mapping(t_address,t_uint256)": {
        "encoding": "mapping",
        "key": "t_address",
        "label": "mapping(address => uint256)",
        "numberOfBytes": "32",
        "value": "t_uint256"
      },
      "t_mapping(t_uint256,t_address)": {
        "encoding": "mapping",
        "key": "t_uint256",
        "label": "mapping(uint256 => address)",
        "numberOfBytes": "32",
        "value": "t_address"
      },
      "t_mapping(t_uint256,t_string_storage)": {
        "encoding": "mapping",
        "key": "t_uint256",
        "label": "mapping(uint256 => string)",
        "numberOfBytes": "32",
        "value": "t_string_storage"
      },
      "t_string_storage": {
        "encoding": "bytes",
        "label": "string",
        "numberOfBytes": "32"
      },
      "t_struct(Counter)2849_storage": {
        "encoding": "inplace",
        "label": "struct Counters.Counter",
        "members": [
          {
            "astId": 2848,
            "contract": "contracts/Nft.sol:Nft",
            "label": "_value",
            "offset": 0,
            "slot": "0",
            "type": "t_uint256"
          }
        ],
        "numberOfBytes": "32"
      },
      "t_uint256": {
        "encoding": "inplace",
        "label": "uint256",
        "numberOfBytes": "32"
      }
    }
  }
}