{
  "address": "0x52173b6ac069619c206b9A0e75609fC92860AB2A",
  "abi": [
    {
      "inputs": [
        {
          "internalType": "address",
          "name": "vrfCoordinatorV2",
          "type": "address"
        },
        {
          "internalType": "uint64",
          "name": "subscriptionId",
          "type": "uint64"
        },
        {
          "internalType": "bytes32",
          "name": "gasLane",
          "type": "bytes32"
        },
        {
          "internalType": "uint32",
          "name": "callbackGasLimit",
          "type": "uint32"
        }
      ],
      "stateMutability": "nonpayable",
      "type": "constructor"
    },
    {
      "inputs": [
        {
          "internalType": "address",
          "name": "have",
          "type": "address"
        },
        {
          "internalType": "address",
          "name": "want",
          "type": "address"
        }
      ],
      "name": "OnlyCoordinatorCanFulfill",
      "type": "error"
    },
    {
      "anonymous": false,
      "inputs": [
        {
          "indexed": false,
          "internalType": "uint256",
          "name": "requestId",
          "type": "uint256"
        },
        {
          "indexed": false,
          "internalType": "address",
          "name": "requester",
          "type": "address"
        },
        {
          "indexed": false,
          "internalType": "enum NftCatAttributes.Breed",
          "name": "breed",
          "type": "uint8"
        },
        {
          "indexed": false,
          "internalType": "enum NftCatAttributes.Color",
          "name": "eyecolor",
          "type": "uint8"
        },
        {
          "indexed": false,
          "internalType": "uint256",
          "name": "playfulness",
          "type": "uint256"
        },
        {
          "indexed": false,
          "internalType": "uint256",
          "name": "cuteness",
          "type": "uint256"
        }
      ],
      "name": "NftCatAttributesCreated",
      "type": "event"
    },
    {
      "anonymous": false,
      "inputs": [
        {
          "indexed": false,
          "internalType": "uint256",
          "name": "requestId",
          "type": "uint256"
        },
        {
          "indexed": false,
          "internalType": "address",
          "name": "requester",
          "type": "address"
        }
      ],
      "name": "NftCatAttributesRequested",
      "type": "event"
    },
    {
      "inputs": [
        {
          "internalType": "uint256",
          "name": "requestId",
          "type": "uint256"
        },
        {
          "internalType": "uint256[]",
          "name": "randomWords",
          "type": "uint256[]"
        }
      ],
      "name": "rawFulfillRandomWords",
      "outputs": [],
      "stateMutability": "nonpayable",
      "type": "function"
    },
    {
      "inputs": [],
      "name": "requestCatAttributes",
      "outputs": [
        {
          "internalType": "uint256",
          "name": "requestId",
          "type": "uint256"
        }
      ],
      "stateMutability": "nonpayable",
      "type": "function"
    },
    {
      "inputs": [
        {
          "internalType": "uint256",
          "name": "",
          "type": "uint256"
        }
      ],
      "name": "s_requestIdToSender",
      "outputs": [
        {
          "internalType": "address",
          "name": "",
          "type": "address"
        }
      ],
      "stateMutability": "view",
      "type": "function"
    }
  ],
  "transactionHash": "0xbe3c0891afba5f501d298d1a60066e424c5f29882be12d796319b2e168cfa598",
  "args": [
    "0x47c05BCCA7d57c87083EB4e586007530eE4539e9",
    "1",
    "0xd89b2bf150e3b9e13446986e571fb9cab24b13cea0a43ea20a6049a85cc807cc",
    "500000"
  ],
  "numDeployments": 1,
  "solcInputHash": "755e84996d3c099a5799e63b4da01a0c",
  "bytecode": "0x6101206040523480156200001257600080fd5b5060405162000d8338038062000d83833981810160405281019062000038919062000210565b838073ffffffffffffffffffffffffffffffffffffffff1660808173ffffffffffffffffffffffffffffffffffffffff1681525050508373ffffffffffffffffffffffffffffffffffffffff1660a08173ffffffffffffffffffffffffffffffffffffffff16815250508267ffffffffffffffff1660c08167ffffffffffffffff16815250508160e081815250508063ffffffff166101008163ffffffff16815250505050505062000282565b600080fd5b600073ffffffffffffffffffffffffffffffffffffffff82169050919050565b60006200011782620000ea565b9050919050565b62000129816200010a565b81146200013557600080fd5b50565b60008151905062000149816200011e565b92915050565b600067ffffffffffffffff82169050919050565b6200016e816200014f565b81146200017a57600080fd5b50565b6000815190506200018e8162000163565b92915050565b6000819050919050565b620001a98162000194565b8114620001b557600080fd5b50565b600081519050620001c9816200019e565b92915050565b600063ffffffff82169050919050565b620001ea81620001cf565b8114620001f657600080fd5b50565b6000815190506200020a81620001df565b92915050565b600080600080608085870312156200022d576200022c620000e5565b5b60006200023d8782880162000138565b945050602062000250878288016200017d565b93505060406200026387828801620001b8565b92505060606200027687828801620001f9565b91505092959194509250565b60805160a05160c05160e05161010051610ab6620002cd60003960006101f4015260006101b0015260006101d10152600061017401526000818160b201526101060152610ab66000f3fe608060405234801561001057600080fd5b50600436106100415760003560e01c80631fe543e3146100465780638702e97e14610062578063a36f573b14610080575b600080fd5b610060600480360381019061005b9190610663565b6100b0565b005b61006a610170565b60405161007791906106ce565b60405180910390f35b61009a600480360381019061009591906106e9565b610316565b6040516100a79190610757565b60405180910390f35b7f000000000000000000000000000000000000000000000000000000000000000073ffffffffffffffffffffffffffffffffffffffff163373ffffffffffffffffffffffffffffffffffffffff161461016257337f00000000000000000000000000000000000000000000000000000000000000006040517f1cf993f4000000000000000000000000000000000000000000000000000000008152600401610159929190610772565b60405180910390fd5b61016c8282610349565b5050565b60007f000000000000000000000000000000000000000000000000000000000000000073ffffffffffffffffffffffffffffffffffffffff16635d3b1d307f00000000000000000000000000000000000000000000000000000000000000007f000000000000000000000000000000000000000000000000000000000000000060037f000000000000000000000000000000000000000000000000000000000000000060046040518663ffffffff1660e01b8152600401610235959493929190610813565b602060405180830381600087803b15801561024f57600080fd5b505af1158015610263573d6000803e3d6000fd5b505050506040513d601f19601f82011682018060405250810190610287919061087b565b90503360008083815260200190815260200160002060006101000a81548173ffffffffffffffffffffffffffffffffffffffff021916908373ffffffffffffffffffffffffffffffffffffffff1602179055507f4ee28e843b6952c7768d547b9003e6c12e66a3d4d2abc56c37ab391fabfda450813360405161030b9291906108a8565b60405180910390a190565b60006020528060005260406000206000915054906101000a900473ffffffffffffffffffffffffffffffffffffffff1681565b600080600084815260200190815260200160002060009054906101000a900473ffffffffffffffffffffffffffffffffffffffff1690506000600380811115610395576103946108d1565b5b836000815181106103a9576103a8610900565b5b60200260200101516103bb919061095e565b905060006004808111156103d2576103d16108d1565b5b846001815181106103e6576103e5610900565b5b60200260200101516103f8919061095e565b9050600060648560028151811061041257610411610900565b5b6020026020010151610424919061095e565b9050600060648660038151811061043e5761043d610900565b5b6020026020010151610450919061095e565b90507fc3647f8aff0bfe1889326d41a49e34ab63069c6760ce06c6d25df740eacc9a228786866003811115610488576104876108d1565b5b86600481111561049b5761049a6108d1565b5b86866040516104af96959493929190610a1f565b60405180910390a150505050505050565b6000604051905090565b600080fd5b600080fd5b6000819050919050565b6104e7816104d4565b81146104f257600080fd5b50565b600081359050610504816104de565b92915050565b600080fd5b6000601f19601f8301169050919050565b7f4e487b7100000000000000000000000000000000000000000000000000000000600052604160045260246000fd5b6105588261050f565b810181811067ffffffffffffffff8211171561057757610576610520565b5b80604052505050565b600061058a6104c0565b9050610596828261054f565b919050565b600067ffffffffffffffff8211156105b6576105b5610520565b5b602082029050602081019050919050565b600080fd5b60006105df6105da8461059b565b610580565b90508083825260208201905060208402830185811115610602576106016105c7565b5b835b8181101561062b578061061788826104f5565b845260208401935050602081019050610604565b5050509392505050565b600082601f83011261064a5761064961050a565b5b813561065a8482602086016105cc565b91505092915050565b6000806040838503121561067a576106796104ca565b5b6000610688858286016104f5565b925050602083013567ffffffffffffffff8111156106a9576106a86104cf565b5b6106b585828601610635565b9150509250929050565b6106c8816104d4565b82525050565b60006020820190506106e360008301846106bf565b92915050565b6000602082840312156106ff576106fe6104ca565b5b600061070d848285016104f5565b91505092915050565b600073ffffffffffffffffffffffffffffffffffffffff82169050919050565b600061074182610716565b9050919050565b61075181610736565b82525050565b600060208201905061076c6000830184610748565b92915050565b60006040820190506107876000830185610748565b6107946020830184610748565b9392505050565b6000819050919050565b6107ae8161079b565b82525050565b600067ffffffffffffffff82169050919050565b6107d1816107b4565b82525050565b600061ffff82169050919050565b6107ee816107d7565b82525050565b600063ffffffff82169050919050565b61080d816107f4565b82525050565b600060a08201905061082860008301886107a5565b61083560208301876107c8565b61084260408301866107e5565b61084f6060830185610804565b61085c6080830184610804565b9695505050505050565b600081519050610875816104de565b92915050565b600060208284031215610891576108906104ca565b5b600061089f84828501610866565b91505092915050565b60006040820190506108bd60008301856106bf565b6108ca6020830184610748565b9392505050565b7f4e487b7100000000000000000000000000000000000000000000000000000000600052602160045260246000fd5b7f4e487b7100000000000000000000000000000000000000000000000000000000600052603260045260246000fd5b7f4e487b7100000000000000000000000000000000000000000000000000000000600052601260045260246000fd5b6000610969826104d4565b9150610974836104d4565b9250826109845761098361092f565b5b828206905092915050565b600481106109a05761099f6108d1565b5b50565b60008190506109b18261098f565b919050565b60006109c1826109a3565b9050919050565b6109d1816109b6565b82525050565b600581106109e8576109e76108d1565b5b50565b60008190506109f9826109d7565b919050565b6000610a09826109eb565b9050919050565b610a19816109fe565b82525050565b600060c082019050610a3460008301896106bf565b610a416020830188610748565b610a4e60408301876109c8565b610a5b6060830186610a10565b610a6860808301856106bf565b610a7560a08301846106bf565b97965050505050505056fea26469706673582212204ad27a04cb764d0ac91ad30544bf6256290d74816ada19e3cfcf5ced06f4a9fa64736f6c63430008090033",
  "devdoc": {
    "kind": "dev",
    "methods": {},
    "version": 1
  },
  "userdoc": {
    "kind": "user",
    "methods": {},
    "version": 1
  },
  "storageLayout": {
    "storage": [
      {
        "astId": 3152,
        "contract": "contracts/NftCatAttributes.sol:NftCatAttributes",
        "label": "s_requestIdToSender",
        "offset": 0,
        "slot": "0",
        "type": "t_mapping(t_uint256,t_address)"
      }
    ],
    "types": {
      "t_address": {
        "encoding": "inplace",
        "label": "address",
        "numberOfBytes": "20"
      },
      "t_mapping(t_uint256,t_address)": {
        "encoding": "mapping",
        "key": "t_uint256",
        "label": "mapping(uint256 => address)",
        "numberOfBytes": "32",
        "value": "t_address"
      },
      "t_uint256": {
        "encoding": "inplace",
        "label": "uint256",
        "numberOfBytes": "32"
      }
    }
  }
}