{
  "address": "0xdB012DD3E3345e2f8D23c0F3cbCb2D94f430Be8C",
  "abi": [
    {
      "inputs": [
        {
          "internalType": "address",
          "name": "nftContractAddress",
          "type": "address"
        },
        {
          "internalType": "uint256",
          "name": "mintingFee",
          "type": "uint256"
        },
        {
          "internalType": "address",
          "name": "vrfCoordinatorV2",
          "type": "address"
        },
        {
          "internalType": "uint64",
          "name": "subscriptionId",
          "type": "uint64"
        },
        {
          "internalType": "bytes32",
          "name": "gasLane",
          "type": "bytes32"
        },
        {
          "internalType": "uint32",
          "name": "callbackGasLimit",
          "type": "uint32"
        }
      ],
      "stateMutability": "nonpayable",
      "type": "constructor"
    },
    {
      "inputs": [],
      "name": "NftMarketplace__IncorrectPrice",
      "type": "error"
    },
    {
      "inputs": [],
      "name": "NftMarketplace__InsufficientFunds",
      "type": "error"
    },
    {
      "inputs": [
        {
          "internalType": "uint256",
          "name": "nftId",
          "type": "uint256"
        },
        {
          "internalType": "address",
          "name": "nftAddress",
          "type": "address"
        }
      ],
      "name": "NftMarketplace__ItemAlreadyListed",
      "type": "error"
    },
    {
      "inputs": [
        {
          "internalType": "uint256",
          "name": "nftId",
          "type": "uint256"
        },
        {
          "internalType": "address",
          "name": "nftAddress",
          "type": "address"
        }
      ],
      "name": "NftMarketplace__ItemNotListed",
      "type": "error"
    },
    {
      "inputs": [],
      "name": "NftMarketplace__NoPriceSetForListing",
      "type": "error"
    },
    {
      "inputs": [
        {
          "internalType": "address",
          "name": "",
          "type": "address"
        }
      ],
      "name": "NftMarketplace__NoProceedingsToWithdraw",
      "type": "error"
    },
    {
      "inputs": [],
      "name": "NftMarketplace__NotApprovedForMarketplace",
      "type": "error"
    },
    {
      "inputs": [],
      "name": "NftMarketplace__SellerCannotBeBuyer",
      "type": "error"
    },
    {
      "inputs": [],
      "name": "NftMarketplace__Unauthorized",
      "type": "error"
    },
    {
      "inputs": [
        {
          "internalType": "address",
          "name": "have",
          "type": "address"
        },
        {
          "internalType": "address",
          "name": "want",
          "type": "address"
        }
      ],
      "name": "OnlyCoordinatorCanFulfill",
      "type": "error"
    },
    {
      "anonymous": false,
      "inputs": [
        {
          "indexed": false,
          "internalType": "uint256",
          "name": "nftId",
          "type": "uint256"
        },
        {
          "indexed": false,
          "internalType": "address",
          "name": "owner",
          "type": "address"
        },
        {
          "indexed": false,
          "internalType": "uint256",
          "name": "price",
          "type": "uint256"
        },
        {
          "indexed": false,
          "internalType": "address",
          "name": "ierc721TokenAddress",
          "type": "address"
        }
      ],
      "name": "NftListed",
      "type": "event"
    },
    {
      "anonymous": false,
      "inputs": [
        {
          "indexed": false,
          "internalType": "uint256",
          "name": "nftId",
          "type": "uint256"
        },
        {
          "indexed": false,
          "internalType": "address",
          "name": "owner",
          "type": "address"
        },
        {
          "indexed": false,
          "internalType": "address",
          "name": "ierc721TokenAddress",
          "type": "address"
        }
      ],
      "name": "NftListingCancelled",
      "type": "event"
    },
    {
      "anonymous": false,
      "inputs": [
        {
          "indexed": false,
          "internalType": "uint256",
          "name": "nftId",
          "type": "uint256"
        },
        {
          "indexed": false,
          "internalType": "address",
          "name": "owner",
          "type": "address"
        },
        {
          "indexed": false,
          "internalType": "uint256",
          "name": "price",
          "type": "uint256"
        },
        {
          "indexed": false,
          "internalType": "address",
          "name": "ierc721TokenAddress",
          "type": "address"
        }
      ],
      "name": "NftListingUpdated",
      "type": "event"
    },
    {
      "anonymous": false,
      "inputs": [
        {
          "indexed": false,
          "internalType": "address",
          "name": "owner",
          "type": "address"
        },
        {
          "indexed": false,
          "internalType": "enum NftMarketplace.Breed",
          "name": "breed",
          "type": "uint8"
        }
      ],
      "name": "NftMinted",
      "type": "event"
    },
    {
      "anonymous": false,
      "inputs": [
        {
          "indexed": false,
          "internalType": "uint256",
          "name": "requestId",
          "type": "uint256"
        },
        {
          "indexed": false,
          "internalType": "address",
          "name": "requester",
          "type": "address"
        }
      ],
      "name": "NftRequested",
      "type": "event"
    },
    {
      "anonymous": false,
      "inputs": [
        {
          "indexed": false,
          "internalType": "address",
          "name": "owner",
          "type": "address"
        },
        {
          "indexed": false,
          "internalType": "uint256",
          "name": "nftId",
          "type": "uint256"
        },
        {
          "indexed": false,
          "internalType": "address",
          "name": "ierc721TokenAddress",
          "type": "address"
        },
        {
          "indexed": false,
          "internalType": "uint256",
          "name": "price",
          "type": "uint256"
        }
      ],
      "name": "NftSold",
      "type": "event"
    },
    {
      "anonymous": false,
      "inputs": [
        {
          "indexed": true,
          "internalType": "address",
          "name": "previousOwner",
          "type": "address"
        },
        {
          "indexed": true,
          "internalType": "address",
          "name": "newOwner",
          "type": "address"
        }
      ],
      "name": "OwnershipTransferred",
      "type": "event"
    },
    {
      "inputs": [
        {
          "internalType": "uint256",
          "name": "nftId",
          "type": "uint256"
        },
        {
          "internalType": "address",
          "name": "ierc721TokenAddress",
          "type": "address"
        }
      ],
      "name": "buyNft",
      "outputs": [],
      "stateMutability": "payable",
      "type": "function"
    },
    {
      "inputs": [
        {
          "internalType": "uint256",
          "name": "nftId",
          "type": "uint256"
        },
        {
          "internalType": "address",
          "name": "ierc721TokenAddress",
          "type": "address"
        }
      ],
      "name": "cancelListing",
      "outputs": [],
      "stateMutability": "nonpayable",
      "type": "function"
    },
    {
      "inputs": [],
      "name": "getMintingFee",
      "outputs": [
        {
          "internalType": "uint256",
          "name": "",
          "type": "uint256"
        }
      ],
      "stateMutability": "view",
      "type": "function"
    },
    {
      "inputs": [
        {
          "internalType": "uint256",
          "name": "nftId",
          "type": "uint256"
        },
        {
          "internalType": "address",
          "name": "ierc721TokenAddress",
          "type": "address"
        },
        {
          "internalType": "uint256",
          "name": "price",
          "type": "uint256"
        }
      ],
      "name": "listNft",
      "outputs": [],
      "stateMutability": "payable",
      "type": "function"
    },
    {
      "inputs": [],
      "name": "owner",
      "outputs": [
        {
          "internalType": "address",
          "name": "",
          "type": "address"
        }
      ],
      "stateMutability": "view",
      "type": "function"
    },
    {
      "inputs": [
        {
          "internalType": "uint256",
          "name": "requestId",
          "type": "uint256"
        },
        {
          "internalType": "uint256[]",
          "name": "randomWords",
          "type": "uint256[]"
        }
      ],
      "name": "rawFulfillRandomWords",
      "outputs": [],
      "stateMutability": "nonpayable",
      "type": "function"
    },
    {
      "inputs": [],
      "name": "renounceOwnership",
      "outputs": [],
      "stateMutability": "nonpayable",
      "type": "function"
    },
    {
      "inputs": [],
      "name": "requestNft",
      "outputs": [
        {
          "internalType": "uint256",
          "name": "requestId",
          "type": "uint256"
        }
      ],
      "stateMutability": "payable",
      "type": "function"
    },
    {
      "inputs": [
        {
          "internalType": "uint256",
          "name": "",
          "type": "uint256"
        }
      ],
      "name": "s_requestIdToSender",
      "outputs": [
        {
          "internalType": "address",
          "name": "",
          "type": "address"
        }
      ],
      "stateMutability": "view",
      "type": "function"
    },
    {
      "inputs": [
        {
          "internalType": "address",
          "name": "newOwner",
          "type": "address"
        }
      ],
      "name": "transferOwnership",
      "outputs": [],
      "stateMutability": "nonpayable",
      "type": "function"
    },
    {
      "inputs": [
        {
          "internalType": "uint256",
          "name": "nftId",
          "type": "uint256"
        },
        {
          "internalType": "address",
          "name": "ierc721TokenAddress",
          "type": "address"
        },
        {
          "internalType": "uint256",
          "name": "price",
          "type": "uint256"
        }
      ],
      "name": "updateListing",
      "outputs": [],
      "stateMutability": "payable",
      "type": "function"
    },
    {
      "inputs": [],
      "name": "withdrawProceedings",
      "outputs": [],
      "stateMutability": "nonpayable",
      "type": "function"
    }
  ],
  "transactionHash": "0x6ce9a033311b0583b13fdd35b97e37f68181d2e12a06bbb41b3e889e6379d25f",
  "args": [
    "0x773330693cb7d5D233348E25809770A32483A940",
    "10000",
    "0x52173b6ac069619c206b9A0e75609fC92860AB2A",
    "1",
    "0xd89b2bf150e3b9e13446986e571fb9cab24b13cea0a43ea20a6049a85cc807cc",
    "500000"
  ],
  "numDeployments": 1,
  "solcInputHash": "d53f116bcd6935aac26ca2f98a537ebe",
  "bytecode": "0x6101406040523480156200001257600080fd5b506040516200279f3803806200279f83398181016040528101906200003891906200038a565b83620000596200004d6200015860201b60201c565b6200016060201b60201c565b8073ffffffffffffffffffffffffffffffffffffffff1660808173ffffffffffffffffffffffffffffffffffffffff168152505050600180819055508460a081815250508267ffffffffffffffff1660e08167ffffffffffffffff16815250508373ffffffffffffffffffffffffffffffffffffffff1660c08173ffffffffffffffffffffffffffffffffffffffff16815250508161010081815250508063ffffffff166101208163ffffffff168152505085600260006101000a81548173ffffffffffffffffffffffffffffffffffffffff021916908373ffffffffffffffffffffffffffffffffffffffff16021790555050505050505062000426565b600033905090565b60008060009054906101000a900473ffffffffffffffffffffffffffffffffffffffff169050816000806101000a81548173ffffffffffffffffffffffffffffffffffffffff021916908373ffffffffffffffffffffffffffffffffffffffff1602179055508173ffffffffffffffffffffffffffffffffffffffff168173ffffffffffffffffffffffffffffffffffffffff167f8be0079c531659141344cd1fd0a4f28419497f9722a3daafe3b4186f6b6457e060405160405180910390a35050565b600080fd5b600073ffffffffffffffffffffffffffffffffffffffff82169050919050565b6000620002568262000229565b9050919050565b620002688162000249565b81146200027457600080fd5b50565b60008151905062000288816200025d565b92915050565b6000819050919050565b620002a3816200028e565b8114620002af57600080fd5b50565b600081519050620002c38162000298565b92915050565b600067ffffffffffffffff82169050919050565b620002e881620002c9565b8114620002f457600080fd5b50565b6000815190506200030881620002dd565b92915050565b6000819050919050565b62000323816200030e565b81146200032f57600080fd5b50565b600081519050620003438162000318565b92915050565b600063ffffffff82169050919050565b620003648162000349565b81146200037057600080fd5b50565b600081519050620003848162000359565b92915050565b60008060008060008060c08789031215620003aa57620003a962000224565b5b6000620003ba89828a0162000277565b9650506020620003cd89828a01620002b2565b9550506040620003e089828a0162000277565b9450506060620003f389828a01620002f7565b93505060806200040689828a0162000332565b92505060a06200041989828a0162000373565b9150509295509295509295565b60805160a05160c05160e051610100516101205161231b620004846000396000610cf001526000610cac01526000610ccd01526000610c70015260008181610c160152610e1701526000818161025c01526102b0015261231b6000f3fe6080604052600436106100a75760003560e01c8063a36f573b11610064578063a36f573b14610173578063aa152491146101b0578063b59d88a9146101ce578063bc3ad145146101f9578063edebf26a14610215578063f2fde38b14610231576100a7565b80631fe543e3146100ac5780634567187f146100d557806360101d3a146100f1578063715018a61461011a5780638da5cb5b14610131578063944a3bb31461015c575b600080fd5b3480156100b857600080fd5b506100d360048036038101906100ce9190611a70565b61025a565b005b6100ef60048036038101906100ea9190611b2a565b61031a565b005b3480156100fd57600080fd5b5061011860048036038101906101139190611b7d565b61075f565b005b34801561012657600080fd5b5061012f610a26565b005b34801561013d57600080fd5b50610146610a3a565b6040516101539190611bcc565b60405180910390f35b34801561016857600080fd5b50610171610a63565b005b34801561017f57600080fd5b5061019a60048036038101906101959190611be7565b610bdf565b6040516101a79190611bcc565b60405180910390f35b6101b8610c12565b6040516101c59190611c23565b60405180910390f35b3480156101da57600080fd5b506101e3610e13565b6040516101f09190611c23565b60405180910390f35b610213600480360381019061020e9190611b7d565b610e3b565b005b61022f600480360381019061022a9190611b2a565b611257565b005b34801561023d57600080fd5b5061025860048036038101906102539190611c3e565b611541565b005b7f000000000000000000000000000000000000000000000000000000000000000073ffffffffffffffffffffffffffffffffffffffff163373ffffffffffffffffffffffffffffffffffffffff161461030c57337f00000000000000000000000000000000000000000000000000000000000000006040517f1cf993f4000000000000000000000000000000000000000000000000000000008152600401610303929190611c6b565b60405180910390fd5b61031682826115c5565b5050565b828260008190508073ffffffffffffffffffffffffffffffffffffffff16636352211e846040518263ffffffff1660e01b815260040161035a9190611c23565b60206040518083038186803b15801561037257600080fd5b505afa158015610386573d6000803e3d6000fd5b505050506040513d601f19601f820116820180604052508101906103aa9190611ca9565b73ffffffffffffffffffffffffffffffffffffffff163373ffffffffffffffffffffffffffffffffffffffff161461040e576040517f0dcb28ef00000000000000000000000000000000000000000000000000000000815260040160405180910390fd5b85856000600460008373ffffffffffffffffffffffffffffffffffffffff1673ffffffffffffffffffffffffffffffffffffffff1681526020019081526020016000206000848152602001908152602001600020604051806040016040529081600082015481526020016001820160009054906101000a900473ffffffffffffffffffffffffffffffffffffffff1673ffffffffffffffffffffffffffffffffffffffff1673ffffffffffffffffffffffffffffffffffffffff1681525050905060008160000151111561051b5782826040517fdb346fd4000000000000000000000000000000000000000000000000000000008152600401610512929190611cd6565b60405180910390fd5b60008711610555576040517f54bd28d500000000000000000000000000000000000000000000000000000000815260040160405180910390fd5b60008890503073ffffffffffffffffffffffffffffffffffffffff168173ffffffffffffffffffffffffffffffffffffffff1663081812fc8c6040518263ffffffff1660e01b81526004016105aa9190611c23565b60206040518083038186803b1580156105c257600080fd5b505afa1580156105d6573d6000803e3d6000fd5b505050506040513d601f19601f820116820180604052508101906105fa9190611ca9565b73ffffffffffffffffffffffffffffffffffffffff1614610647576040517f13e7d28d00000000000000000000000000000000000000000000000000000000815260040160405180910390fd5b60405180604001604052808981526020013373ffffffffffffffffffffffffffffffffffffffff16815250600460008b73ffffffffffffffffffffffffffffffffffffffff1673ffffffffffffffffffffffffffffffffffffffff16815260200190815260200160002060008c81526020019081526020016000206000820151816000015560208201518160010160006101000a81548173ffffffffffffffffffffffffffffffffffffffff021916908373ffffffffffffffffffffffffffffffffffffffff1602179055509050507fa73f098d534edf6a52cdd2dc3267f38c9ea91942807d75a85fd97a9adbddffc98a338a8c60405161074b9493929190611cff565b60405180910390a150505050505050505050565b818160008190508073ffffffffffffffffffffffffffffffffffffffff16636352211e846040518263ffffffff1660e01b815260040161079f9190611c23565b60206040518083038186803b1580156107b757600080fd5b505afa1580156107cb573d6000803e3d6000fd5b505050506040513d601f19601f820116820180604052508101906107ef9190611ca9565b73ffffffffffffffffffffffffffffffffffffffff163373ffffffffffffffffffffffffffffffffffffffff1614610853576040517f0dcb28ef00000000000000000000000000000000000000000000000000000000815260040160405180910390fd5b84846000600460008373ffffffffffffffffffffffffffffffffffffffff1673ffffffffffffffffffffffffffffffffffffffff1681526020019081526020016000206000848152602001908152602001600020604051806040016040529081600082015481526020016001820160009054906101000a900473ffffffffffffffffffffffffffffffffffffffff1673ffffffffffffffffffffffffffffffffffffffff1673ffffffffffffffffffffffffffffffffffffffff16815250509050600081600001511161095f5782826040517f023c0df6000000000000000000000000000000000000000000000000000000008152600401610956929190611cd6565b60405180910390fd5b600460008873ffffffffffffffffffffffffffffffffffffffff1673ffffffffffffffffffffffffffffffffffffffff16815260200190815260200160002060008981526020019081526020016000206000808201600090556001820160006101000a81549073ffffffffffffffffffffffffffffffffffffffff021916905550507f7404f84749a8586c35ac6fbe72e3621fd06cb4356e32011b11841a438aa3a9a5883389604051610a1493929190611d44565b60405180910390a15050505050505050565b610a2e61172a565b610a3860006117a8565b565b60008060009054906101000a900473ffffffffffffffffffffffffffffffffffffffff16905090565b6000600560003373ffffffffffffffffffffffffffffffffffffffff1673ffffffffffffffffffffffffffffffffffffffff16815260200190815260200160002054905060008111610aec57336040517fcaf73511000000000000000000000000000000000000000000000000000000008152600401610ae39190611bcc565b60405180910390fd5b600560003373ffffffffffffffffffffffffffffffffffffffff1673ffffffffffffffffffffffffffffffffffffffff1681526020019081526020016000206000905560003373ffffffffffffffffffffffffffffffffffffffff1682604051610b5590611dac565b60006040518083038185875af1925050503d8060008114610b92576040519150601f19603f3d011682016040523d82523d6000602084013e610b97565b606091505b5050905080610bdb576040517f08c379a0000000000000000000000000000000000000000000000000000000008152600401610bd290611e1e565b60405180910390fd5b5050565b60036020528060005260406000206000915054906101000a900473ffffffffffffffffffffffffffffffffffffffff1681565b60007f0000000000000000000000000000000000000000000000000000000000000000341015610c6e576040517f82c35bab00000000000000000000000000000000000000000000000000000000815260040160405180910390fd5b7f000000000000000000000000000000000000000000000000000000000000000073ffffffffffffffffffffffffffffffffffffffff16635d3b1d307f00000000000000000000000000000000000000000000000000000000000000007f000000000000000000000000000000000000000000000000000000000000000060037f000000000000000000000000000000000000000000000000000000000000000060016040518663ffffffff1660e01b8152600401610d31959493929190611eb6565b602060405180830381600087803b158015610d4b57600080fd5b505af1158015610d5f573d6000803e3d6000fd5b505050506040513d601f19601f82011682018060405250810190610d839190611f1e565b9050336003600083815260200190815260200160002060006101000a81548173ffffffffffffffffffffffffffffffffffffffff021916908373ffffffffffffffffffffffffffffffffffffffff1602179055507ff873236e6cc0ecc5be1a9a35c95ee5b8d1ac4cc7bfef0cc5060391d6cc98e26b8133604051610e08929190611cd6565b60405180910390a190565b60007f0000000000000000000000000000000000000000000000000000000000000000905090565b81816000600460008373ffffffffffffffffffffffffffffffffffffffff1673ffffffffffffffffffffffffffffffffffffffff1681526020019081526020016000206000848152602001908152602001600020604051806040016040529081600082015481526020016001820160009054906101000a900473ffffffffffffffffffffffffffffffffffffffff1673ffffffffffffffffffffffffffffffffffffffff1673ffffffffffffffffffffffffffffffffffffffff168152505090506000816000015111610f475782826040517f023c0df6000000000000000000000000000000000000000000000000000000008152600401610f3e929190611cd6565b60405180910390fd5b610f4f61186c565b6000600460008673ffffffffffffffffffffffffffffffffffffffff1673ffffffffffffffffffffffffffffffffffffffff1681526020019081526020016000206000878152602001908152602001600020604051806040016040529081600082015481526020016001820160009054906101000a900473ffffffffffffffffffffffffffffffffffffffff1673ffffffffffffffffffffffffffffffffffffffff1673ffffffffffffffffffffffffffffffffffffffff168152505090508060000151341461104b576040517f2e9b21e900000000000000000000000000000000000000000000000000000000815260040160405180910390fd5b806020015173ffffffffffffffffffffffffffffffffffffffff163373ffffffffffffffffffffffffffffffffffffffff1614156110b5576040517f8455ff1600000000000000000000000000000000000000000000000000000000815260040160405180910390fd5b6000859050600460008773ffffffffffffffffffffffffffffffffffffffff1673ffffffffffffffffffffffffffffffffffffffff16815260200190815260200160002060008881526020019081526020016000206000808201600090556001820160006101000a81549073ffffffffffffffffffffffffffffffffffffffff021916905550503460056000846020015173ffffffffffffffffffffffffffffffffffffffff1673ffffffffffffffffffffffffffffffffffffffff168152602001908152602001600020600082825461118f9190611f7a565b925050819055508073ffffffffffffffffffffffffffffffffffffffff166342842e0e8360200151338a6040518463ffffffff1660e01b81526004016111d793929190611fd0565b600060405180830381600087803b1580156111f157600080fd5b505af1158015611205573d6000803e3d6000fd5b505050507f6a438a4150073527952c9707daf83bb1117cad2f1c5dd1238a9a9925b8f8bef23388883460405161123e9493929190612007565b60405180910390a150506112506118bc565b5050505050565b828260008190508073ffffffffffffffffffffffffffffffffffffffff16636352211e846040518263ffffffff1660e01b81526004016112979190611c23565b60206040518083038186803b1580156112af57600080fd5b505afa1580156112c3573d6000803e3d6000fd5b505050506040513d601f19601f820116820180604052508101906112e79190611ca9565b73ffffffffffffffffffffffffffffffffffffffff163373ffffffffffffffffffffffffffffffffffffffff161461134b576040517f0dcb28ef00000000000000000000000000000000000000000000000000000000815260040160405180910390fd5b85856000600460008373ffffffffffffffffffffffffffffffffffffffff1673ffffffffffffffffffffffffffffffffffffffff1681526020019081526020016000206000848152602001908152602001600020604051806040016040529081600082015481526020016001820160009054906101000a900473ffffffffffffffffffffffffffffffffffffffff1673ffffffffffffffffffffffffffffffffffffffff1673ffffffffffffffffffffffffffffffffffffffff1681525050905060008160000151116114575782826040517f023c0df600000000000000000000000000000000000000000000000000000000815260040161144e929190611cd6565b60405180910390fd5b61145f61186c565b60008711611499576040517f54bd28d500000000000000000000000000000000000000000000000000000000815260040160405180910390fd5b86600460008a73ffffffffffffffffffffffffffffffffffffffff1673ffffffffffffffffffffffffffffffffffffffff16815260200190815260200160002060008b8152602001908152602001600020600001819055507f21405cee36da6b7d3d65bd23c7d2866ee664e71e61502e5e03ce2604bc899ea18933898b6040516115269493929190611cff565b60405180910390a16115366118bc565b505050505050505050565b61154961172a565b600073ffffffffffffffffffffffffffffffffffffffff168173ffffffffffffffffffffffffffffffffffffffff1614156115b9576040517f08c379a00000000000000000000000000000000000000000000000000000000081526004016115b0906120be565b60405180910390fd5b6115c2816117a8565b50565b60006003600084815260200190815260200160002060009054906101000a900473ffffffffffffffffffffffffffffffffffffffff1690506000600383600081518110611615576116146120de565b5b6020026020010151611627919061213c565b9050600260009054906101000a900473ffffffffffffffffffffffffffffffffffffffff1673ffffffffffffffffffffffffffffffffffffffff166394bf804d82846040518363ffffffff1660e01b8152600401611686929190611cd6565b602060405180830381600087803b1580156116a057600080fd5b505af11580156116b4573d6000803e3d6000fd5b505050506040513d601f19601f820116820180604052508101906116d89190611f1e565b507f80985d5c3655dd2a315885414015f1e134a367ba36761c5cda32dd39882f1ea28282600281111561170e5761170d61216d565b5b60405161171c9291906121e4565b60405180910390a150505050565b6117326118c5565b73ffffffffffffffffffffffffffffffffffffffff16611750610a3a565b73ffffffffffffffffffffffffffffffffffffffff16146117a6576040517f08c379a000000000000000000000000000000000000000000000000000000000815260040161179d90612259565b60405180910390fd5b565b60008060009054906101000a900473ffffffffffffffffffffffffffffffffffffffff169050816000806101000a81548173ffffffffffffffffffffffffffffffffffffffff021916908373ffffffffffffffffffffffffffffffffffffffff1602179055508173ffffffffffffffffffffffffffffffffffffffff168173ffffffffffffffffffffffffffffffffffffffff167f8be0079c531659141344cd1fd0a4f28419497f9722a3daafe3b4186f6b6457e060405160405180910390a35050565b600260015414156118b2576040517f08c379a00000000000000000000000000000000000000000000000000000000081526004016118a9906122c5565b60405180910390fd5b6002600181905550565b60018081905550565b600033905090565b6000604051905090565b600080fd5b600080fd5b6000819050919050565b6118f4816118e1565b81146118ff57600080fd5b50565b600081359050611911816118eb565b92915050565b600080fd5b6000601f19601f8301169050919050565b7f4e487b7100000000000000000000000000000000000000000000000000000000600052604160045260246000fd5b6119658261191c565b810181811067ffffffffffffffff821117156119845761198361192d565b5b80604052505050565b60006119976118cd565b90506119a3828261195c565b919050565b600067ffffffffffffffff8211156119c3576119c261192d565b5b602082029050602081019050919050565b600080fd5b60006119ec6119e7846119a8565b61198d565b90508083825260208201905060208402830185811115611a0f57611a0e6119d4565b5b835b81811015611a385780611a248882611902565b845260208401935050602081019050611a11565b5050509392505050565b600082601f830112611a5757611a56611917565b5b8135611a678482602086016119d9565b91505092915050565b60008060408385031215611a8757611a866118d7565b5b6000611a9585828601611902565b925050602083013567ffffffffffffffff811115611ab657611ab56118dc565b5b611ac285828601611a42565b9150509250929050565b600073ffffffffffffffffffffffffffffffffffffffff82169050919050565b6000611af782611acc565b9050919050565b611b0781611aec565b8114611b1257600080fd5b50565b600081359050611b2481611afe565b92915050565b600080600060608486031215611b4357611b426118d7565b5b6000611b5186828701611902565b9350506020611b6286828701611b15565b9250506040611b7386828701611902565b9150509250925092565b60008060408385031215611b9457611b936118d7565b5b6000611ba285828601611902565b9250506020611bb385828601611b15565b9150509250929050565b611bc681611aec565b82525050565b6000602082019050611be16000830184611bbd565b92915050565b600060208284031215611bfd57611bfc6118d7565b5b6000611c0b84828501611902565b91505092915050565b611c1d816118e1565b82525050565b6000602082019050611c386000830184611c14565b92915050565b600060208284031215611c5457611c536118d7565b5b6000611c6284828501611b15565b91505092915050565b6000604082019050611c806000830185611bbd565b611c8d6020830184611bbd565b9392505050565b600081519050611ca381611afe565b92915050565b600060208284031215611cbf57611cbe6118d7565b5b6000611ccd84828501611c94565b91505092915050565b6000604082019050611ceb6000830185611c14565b611cf86020830184611bbd565b9392505050565b6000608082019050611d146000830187611c14565b611d216020830186611bbd565b611d2e6040830185611c14565b611d3b6060830184611bbd565b95945050505050565b6000606082019050611d596000830186611c14565b611d666020830185611bbd565b611d736040830184611bbd565b949350505050565b600081905092915050565b50565b6000611d96600083611d7b565b9150611da182611d86565b600082019050919050565b6000611db782611d89565b9150819050919050565b600082825260208201905092915050565b7f5769746864726177206661696c65640000000000000000000000000000000000600082015250565b6000611e08600f83611dc1565b9150611e1382611dd2565b602082019050919050565b60006020820190508181036000830152611e3781611dfb565b9050919050565b6000819050919050565b611e5181611e3e565b82525050565b600067ffffffffffffffff82169050919050565b611e7481611e57565b82525050565b600061ffff82169050919050565b611e9181611e7a565b82525050565b600063ffffffff82169050919050565b611eb081611e97565b82525050565b600060a082019050611ecb6000830188611e48565b611ed86020830187611e6b565b611ee56040830186611e88565b611ef26060830185611ea7565b611eff6080830184611ea7565b9695505050505050565b600081519050611f18816118eb565b92915050565b600060208284031215611f3457611f336118d7565b5b6000611f4284828501611f09565b91505092915050565b7f4e487b7100000000000000000000000000000000000000000000000000000000600052601160045260246000fd5b6000611f85826118e1565b9150611f90836118e1565b9250827fffffffffffffffffffffffffffffffffffffffffffffffffffffffffffffffff03821115611fc557611fc4611f4b565b5b828201905092915050565b6000606082019050611fe56000830186611bbd565b611ff26020830185611bbd565b611fff6040830184611c14565b949350505050565b600060808201905061201c6000830187611bbd565b6120296020830186611c14565b6120366040830185611bbd565b6120436060830184611c14565b95945050505050565b7f4f776e61626c653a206e6577206f776e657220697320746865207a65726f206160008201527f6464726573730000000000000000000000000000000000000000000000000000602082015250565b60006120a8602683611dc1565b91506120b38261204c565b604082019050919050565b600060208201905081810360008301526120d78161209b565b9050919050565b7f4e487b7100000000000000000000000000000000000000000000000000000000600052603260045260246000fd5b7f4e487b7100000000000000000000000000000000000000000000000000000000600052601260045260246000fd5b6000612147826118e1565b9150612152836118e1565b9250826121625761216161210d565b5b828206905092915050565b7f4e487b7100000000000000000000000000000000000000000000000000000000600052602160045260246000fd5b600381106121ad576121ac61216d565b5b50565b60008190506121be8261219c565b919050565b60006121ce826121b0565b9050919050565b6121de816121c3565b82525050565b60006040820190506121f96000830185611bbd565b61220660208301846121d5565b9392505050565b7f4f776e61626c653a2063616c6c6572206973206e6f7420746865206f776e6572600082015250565b6000612243602083611dc1565b915061224e8261220d565b602082019050919050565b6000602082019050818103600083015261227281612236565b9050919050565b7f5265656e7472616e637947756172643a207265656e7472616e742063616c6c00600082015250565b60006122af601f83611dc1565b91506122ba82612279565b602082019050919050565b600060208201905081810360008301526122de816122a2565b905091905056fea264697066735822122057bd317f95864d880c49030cc63d4ef2900e4fcba35f186dcc92cebec2c1f0e864736f6c63430008090033",
  "devdoc": {
    "kind": "dev",
    "methods": {
      "owner()": {
        "details": "Returns the address of the current owner."
      },
      "renounceOwnership()": {
        "details": "Leaves the contract without owner. It will not be possible to call `onlyOwner` functions anymore. Can only be called by the current owner. NOTE: Renouncing ownership will leave the contract without an owner, thereby removing any functionality that is only available to the owner."
      },
      "transferOwnership(address)": {
        "details": "Transfers ownership of the contract to a new account (`newOwner`). Can only be called by the current owner."
      }
    },
    "version": 1
  },
  "userdoc": {
    "kind": "user",
    "methods": {},
    "version": 1
  },
  "storageLayout": {
    "storage": [
      {
        "astId": 1119,
        "contract": "contracts/NftMarketplace.sol:NftMarketplace",
        "label": "_owner",
        "offset": 0,
        "slot": "0",
        "type": "t_address"
      },
      {
        "astId": 1235,
        "contract": "contracts/NftMarketplace.sol:NftMarketplace",
        "label": "_status",
        "offset": 0,
        "slot": "1",
        "type": "t_uint256"
      },
      {
        "astId": 4147,
        "contract": "contracts/NftMarketplace.sol:NftMarketplace",
        "label": "nftContract",
        "offset": 0,
        "slot": "2",
        "type": "t_contract(Nft)4076"
      },
      {
        "astId": 4151,
        "contract": "contracts/NftMarketplace.sol:NftMarketplace",
        "label": "s_requestIdToSender",
        "offset": 0,
        "slot": "3",
        "type": "t_mapping(t_uint256,t_address)"
      },
      {
        "astId": 4158,
        "contract": "contracts/NftMarketplace.sol:NftMarketplace",
        "label": "s_listings",
        "offset": 0,
        "slot": "4",
        "type": "t_mapping(t_address,t_mapping(t_uint256,t_struct(Listing)4127_storage))"
      },
      {
        "astId": 4162,
        "contract": "contracts/NftMarketplace.sol:NftMarketplace",
        "label": "s_proceedings",
        "offset": 0,
        "slot": "5",
        "type": "t_mapping(t_address,t_uint256)"
      }
    ],
    "types": {
      "t_address": {
        "encoding": "inplace",
        "label": "address",
        "numberOfBytes": "20"
      },
      "t_contract(Nft)4076": {
        "encoding": "inplace",
        "label": "contract Nft",
        "numberOfBytes": "20"
      },
      "t_mapping(t_address,t_mapping(t_uint256,t_struct(Listing)4127_storage))": {
        "encoding": "mapping",
        "key": "t_address",
        "label": "mapping(address => mapping(uint256 => struct NftMarketplace.Listing))",
        "numberOfBytes": "32",
        "value": "t_mapping(t_uint256,t_struct(Listing)4127_storage)"
      },
      "t_mapping(t_address,t_uint256)": {
        "encoding": "mapping",
        "key": "t_address",
        "label": "mapping(address => uint256)",
        "numberOfBytes": "32",
        "value": "t_uint256"
      },
      "t_mapping(t_uint256,t_address)": {
        "encoding": "mapping",
        "key": "t_uint256",
        "label": "mapping(uint256 => address)",
        "numberOfBytes": "32",
        "value": "t_address"
      },
      "t_mapping(t_uint256,t_struct(Listing)4127_storage)": {
        "encoding": "mapping",
        "key": "t_uint256",
        "label": "mapping(uint256 => struct NftMarketplace.Listing)",
        "numberOfBytes": "32",
        "value": "t_struct(Listing)4127_storage"
      },
      "t_struct(Listing)4127_storage": {
        "encoding": "inplace",
        "label": "struct NftMarketplace.Listing",
        "members": [
          {
            "astId": 4124,
            "contract": "contracts/NftMarketplace.sol:NftMarketplace",
            "label": "price",
            "offset": 0,
            "slot": "0",
            "type": "t_uint256"
          },
          {
            "astId": 4126,
            "contract": "contracts/NftMarketplace.sol:NftMarketplace",
            "label": "seller",
            "offset": 0,
            "slot": "1",
            "type": "t_address"
          }
        ],
        "numberOfBytes": "64"
      },
      "t_uint256": {
        "encoding": "inplace",
        "label": "uint256",
        "numberOfBytes": "32"
      }
    }
  }
}