{
  "address": "0xA3f7BF5b0fa93176c260BBa57ceE85525De2BaF4",
  "abi": [
    {
      "inputs": [
        {
          "internalType": "address",
          "name": "nftContractAddress",
          "type": "address"
        },
        {
          "internalType": "uint256",
          "name": "mintingFee",
          "type": "uint256"
        }
      ],
      "stateMutability": "nonpayable",
      "type": "constructor"
    },
    {
      "inputs": [],
      "name": "NftMarketplace__IncorrectPrice",
      "type": "error"
    },
    {
      "inputs": [],
      "name": "NftMarketplace__InsufficientFunds",
      "type": "error"
    },
    {
      "inputs": [
        {
          "internalType": "uint256",
          "name": "nftId",
          "type": "uint256"
        },
        {
          "internalType": "address",
          "name": "nftAddress",
          "type": "address"
        }
      ],
      "name": "NftMarketplace__ItemAlreadyListed",
      "type": "error"
    },
    {
      "inputs": [
        {
          "internalType": "uint256",
          "name": "nftId",
          "type": "uint256"
        },
        {
          "internalType": "address",
          "name": "nftAddress",
          "type": "address"
        }
      ],
      "name": "NftMarketplace__ItemNotListed",
      "type": "error"
    },
    {
      "inputs": [],
      "name": "NftMarketplace__NoPriceSetForListing",
      "type": "error"
    },
    {
      "inputs": [
        {
          "internalType": "address",
          "name": "",
          "type": "address"
        }
      ],
      "name": "NftMarketplace__NoProceedingsToWithdraw",
      "type": "error"
    },
    {
      "inputs": [],
      "name": "NftMarketplace__NotApprovedForMarketplace",
      "type": "error"
    },
    {
      "inputs": [],
      "name": "NftMarketplace__SellerCannotBeBuyer",
      "type": "error"
    },
    {
      "inputs": [],
      "name": "NftMarketplace__Unauthorized",
      "type": "error"
    },
    {
      "anonymous": false,
      "inputs": [
        {
          "indexed": false,
          "internalType": "uint256",
          "name": "nftId",
          "type": "uint256"
        },
        {
          "indexed": false,
          "internalType": "address",
          "name": "owner",
          "type": "address"
        },
        {
          "indexed": false,
          "internalType": "uint256",
          "name": "price",
          "type": "uint256"
        },
        {
          "indexed": false,
          "internalType": "address",
          "name": "ierc721TokenAddress",
          "type": "address"
        }
      ],
      "name": "NftListed",
      "type": "event"
    },
    {
      "anonymous": false,
      "inputs": [
        {
          "indexed": false,
          "internalType": "uint256",
          "name": "nftId",
          "type": "uint256"
        },
        {
          "indexed": false,
          "internalType": "address",
          "name": "owner",
          "type": "address"
        },
        {
          "indexed": false,
          "internalType": "address",
          "name": "ierc721TokenAddress",
          "type": "address"
        }
      ],
      "name": "NftListingCancelled",
      "type": "event"
    },
    {
      "anonymous": false,
      "inputs": [
        {
          "indexed": false,
          "internalType": "uint256",
          "name": "nftId",
          "type": "uint256"
        },
        {
          "indexed": false,
          "internalType": "address",
          "name": "owner",
          "type": "address"
        },
        {
          "indexed": false,
          "internalType": "uint256",
          "name": "price",
          "type": "uint256"
        },
        {
          "indexed": false,
          "internalType": "address",
          "name": "ierc721TokenAddress",
          "type": "address"
        }
      ],
      "name": "NftListingUpdated",
      "type": "event"
    },
    {
      "anonymous": false,
      "inputs": [
        {
          "indexed": false,
          "internalType": "address",
          "name": "owner",
          "type": "address"
        }
      ],
      "name": "NftMinted",
      "type": "event"
    },
    {
      "anonymous": false,
      "inputs": [
        {
          "indexed": false,
          "internalType": "address",
          "name": "owner",
          "type": "address"
        },
        {
          "indexed": false,
          "internalType": "uint256",
          "name": "nftId",
          "type": "uint256"
        },
        {
          "indexed": false,
          "internalType": "address",
          "name": "ierc721TokenAddress",
          "type": "address"
        },
        {
          "indexed": false,
          "internalType": "uint256",
          "name": "price",
          "type": "uint256"
        }
      ],
      "name": "NftSold",
      "type": "event"
    },
    {
      "anonymous": false,
      "inputs": [
        {
          "indexed": true,
          "internalType": "address",
          "name": "previousOwner",
          "type": "address"
        },
        {
          "indexed": true,
          "internalType": "address",
          "name": "newOwner",
          "type": "address"
        }
      ],
      "name": "OwnershipTransferred",
      "type": "event"
    },
    {
      "inputs": [
        {
          "internalType": "uint256",
          "name": "nftId",
          "type": "uint256"
        },
        {
          "internalType": "address",
          "name": "ierc721TokenAddress",
          "type": "address"
        }
      ],
      "name": "buyNft",
      "outputs": [],
      "stateMutability": "payable",
      "type": "function"
    },
    {
      "inputs": [
        {
          "internalType": "uint256",
          "name": "nftId",
          "type": "uint256"
        },
        {
          "internalType": "address",
          "name": "ierc721TokenAddress",
          "type": "address"
        }
      ],
      "name": "cancelListing",
      "outputs": [],
      "stateMutability": "nonpayable",
      "type": "function"
    },
    {
      "inputs": [],
      "name": "getMintingFee",
      "outputs": [
        {
          "internalType": "uint256",
          "name": "",
          "type": "uint256"
        }
      ],
      "stateMutability": "view",
      "type": "function"
    },
    {
      "inputs": [
        {
          "internalType": "uint256",
          "name": "nftId",
          "type": "uint256"
        },
        {
          "internalType": "address",
          "name": "ierc721TokenAddress",
          "type": "address"
        },
        {
          "internalType": "uint256",
          "name": "price",
          "type": "uint256"
        }
      ],
      "name": "listNft",
      "outputs": [],
      "stateMutability": "payable",
      "type": "function"
    },
    {
      "inputs": [],
      "name": "owner",
      "outputs": [
        {
          "internalType": "address",
          "name": "",
          "type": "address"
        }
      ],
      "stateMutability": "view",
      "type": "function"
    },
    {
      "inputs": [],
      "name": "renounceOwnership",
      "outputs": [],
      "stateMutability": "nonpayable",
      "type": "function"
    },
    {
      "inputs": [
        {
          "internalType": "string",
          "name": "ipfsHash",
          "type": "string"
        }
      ],
      "name": "requestNft",
      "outputs": [],
      "stateMutability": "payable",
      "type": "function"
    },
    {
      "inputs": [
        {
          "internalType": "uint256",
          "name": "",
          "type": "uint256"
        }
      ],
      "name": "s_requestIdToSender",
      "outputs": [
        {
          "internalType": "address",
          "name": "",
          "type": "address"
        }
      ],
      "stateMutability": "view",
      "type": "function"
    },
    {
      "inputs": [
        {
          "internalType": "address",
          "name": "newOwner",
          "type": "address"
        }
      ],
      "name": "transferOwnership",
      "outputs": [],
      "stateMutability": "nonpayable",
      "type": "function"
    },
    {
      "inputs": [
        {
          "internalType": "uint256",
          "name": "nftId",
          "type": "uint256"
        },
        {
          "internalType": "address",
          "name": "ierc721TokenAddress",
          "type": "address"
        },
        {
          "internalType": "uint256",
          "name": "price",
          "type": "uint256"
        }
      ],
      "name": "updateListing",
      "outputs": [],
      "stateMutability": "payable",
      "type": "function"
    },
    {
      "inputs": [],
      "name": "withdrawProceedings",
      "outputs": [],
      "stateMutability": "nonpayable",
      "type": "function"
    }
  ],
  "transactionHash": "0xb2ee3e196244b5c800d118cd6e45732252c9dfe5d3ec59a6d653b45b1137008a",
  "args": [
    "0x6f2E42BB4176e9A7352a8bF8886255Be9F3D2d13",
    "10000"
  ],
  "numDeployments": 1,
  "solcInputHash": "d6f722bc6921345623c1b62a92aff1be",
  "bytecode": "0x60a06040523480156200001157600080fd5b50604051620020eb380380620020eb833981810160405281019062000037919062000220565b620000576200004b620000af60201b60201c565b620000b760201b60201c565b6001808190555081600260006101000a81548173ffffffffffffffffffffffffffffffffffffffff021916908373ffffffffffffffffffffffffffffffffffffffff1602179055508060808181525050505062000267565b600033905090565b60008060009054906101000a900473ffffffffffffffffffffffffffffffffffffffff169050816000806101000a81548173ffffffffffffffffffffffffffffffffffffffff021916908373ffffffffffffffffffffffffffffffffffffffff1602179055508173ffffffffffffffffffffffffffffffffffffffff168173ffffffffffffffffffffffffffffffffffffffff167f8be0079c531659141344cd1fd0a4f28419497f9722a3daafe3b4186f6b6457e060405160405180910390a35050565b600080fd5b600073ffffffffffffffffffffffffffffffffffffffff82169050919050565b6000620001ad8262000180565b9050919050565b620001bf81620001a0565b8114620001cb57600080fd5b50565b600081519050620001df81620001b4565b92915050565b6000819050919050565b620001fa81620001e5565b81146200020657600080fd5b50565b6000815190506200021a81620001ef565b92915050565b600080604083850312156200023a57620002396200017b565b5b60006200024a85828601620001ce565b92505060206200025d8582860162000209565b9150509250929050565b608051611e616200028a60003960008181610b2001526112d00152611e616000f3fe60806040526004361061009c5760003560e01c8063a36f573b11610064578063a36f573b1461013f578063b59d88a91461017c578063bc3ad145146101a7578063edebf26a146101c3578063f2fde38b146101df578063f38db786146102085761009c565b80634567187f146100a157806360101d3a146100bd578063715018a6146100e65780638da5cb5b146100fd578063944a3bb314610128575b600080fd5b6100bb60048036038101906100b6919061165d565b610224565b005b3480156100c957600080fd5b506100e460048036038101906100df91906116b0565b610669565b005b3480156100f257600080fd5b506100fb610930565b005b34801561010957600080fd5b50610112610944565b60405161011f91906116ff565b60405180910390f35b34801561013457600080fd5b5061013d61096d565b005b34801561014b57600080fd5b506101666004803603810190610161919061171a565b610ae9565b60405161017391906116ff565b60405180910390f35b34801561018857600080fd5b50610191610b1c565b60405161019e9190611756565b60405180910390f35b6101c160048036038101906101bc91906116b0565b610b44565b005b6101dd60048036038101906101d8919061165d565b610f60565b005b3480156101eb57600080fd5b5061020660048036038101906102019190611771565b61124a565b005b610222600480360381019061021d91906118e4565b6112ce565b005b828260008190508073ffffffffffffffffffffffffffffffffffffffff16636352211e846040518263ffffffff1660e01b81526004016102649190611756565b60206040518083038186803b15801561027c57600080fd5b505afa158015610290573d6000803e3d6000fd5b505050506040513d601f19601f820116820180604052508101906102b49190611942565b73ffffffffffffffffffffffffffffffffffffffff163373ffffffffffffffffffffffffffffffffffffffff1614610318576040517f0dcb28ef00000000000000000000000000000000000000000000000000000000815260040160405180910390fd5b85856000600460008373ffffffffffffffffffffffffffffffffffffffff1673ffffffffffffffffffffffffffffffffffffffff1681526020019081526020016000206000848152602001908152602001600020604051806040016040529081600082015481526020016001820160009054906101000a900473ffffffffffffffffffffffffffffffffffffffff1673ffffffffffffffffffffffffffffffffffffffff1673ffffffffffffffffffffffffffffffffffffffff168152505090506000816000015111156104255782826040517fdb346fd400000000000000000000000000000000000000000000000000000000815260040161041c92919061196f565b60405180910390fd5b6000871161045f576040517f54bd28d500000000000000000000000000000000000000000000000000000000815260040160405180910390fd5b60008890503073ffffffffffffffffffffffffffffffffffffffff168173ffffffffffffffffffffffffffffffffffffffff1663081812fc8c6040518263ffffffff1660e01b81526004016104b49190611756565b60206040518083038186803b1580156104cc57600080fd5b505afa1580156104e0573d6000803e3d6000fd5b505050506040513d601f19601f820116820180604052508101906105049190611942565b73ffffffffffffffffffffffffffffffffffffffff1614610551576040517f13e7d28d00000000000000000000000000000000000000000000000000000000815260040160405180910390fd5b60405180604001604052808981526020013373ffffffffffffffffffffffffffffffffffffffff16815250600460008b73ffffffffffffffffffffffffffffffffffffffff1673ffffffffffffffffffffffffffffffffffffffff16815260200190815260200160002060008c81526020019081526020016000206000820151816000015560208201518160010160006101000a81548173ffffffffffffffffffffffffffffffffffffffff021916908373ffffffffffffffffffffffffffffffffffffffff1602179055509050507fa73f098d534edf6a52cdd2dc3267f38c9ea91942807d75a85fd97a9adbddffc98a338a8c6040516106559493929190611998565b60405180910390a150505050505050505050565b818160008190508073ffffffffffffffffffffffffffffffffffffffff16636352211e846040518263ffffffff1660e01b81526004016106a99190611756565b60206040518083038186803b1580156106c157600080fd5b505afa1580156106d5573d6000803e3d6000fd5b505050506040513d601f19601f820116820180604052508101906106f99190611942565b73ffffffffffffffffffffffffffffffffffffffff163373ffffffffffffffffffffffffffffffffffffffff161461075d576040517f0dcb28ef00000000000000000000000000000000000000000000000000000000815260040160405180910390fd5b84846000600460008373ffffffffffffffffffffffffffffffffffffffff1673ffffffffffffffffffffffffffffffffffffffff1681526020019081526020016000206000848152602001908152602001600020604051806040016040529081600082015481526020016001820160009054906101000a900473ffffffffffffffffffffffffffffffffffffffff1673ffffffffffffffffffffffffffffffffffffffff1673ffffffffffffffffffffffffffffffffffffffff1681525050905060008160000151116108695782826040517f023c0df600000000000000000000000000000000000000000000000000000000815260040161086092919061196f565b60405180910390fd5b600460008873ffffffffffffffffffffffffffffffffffffffff1673ffffffffffffffffffffffffffffffffffffffff16815260200190815260200160002060008981526020019081526020016000206000808201600090556001820160006101000a81549073ffffffffffffffffffffffffffffffffffffffff021916905550507f7404f84749a8586c35ac6fbe72e3621fd06cb4356e32011b11841a438aa3a9a588338960405161091e939291906119dd565b60405180910390a15050505050505050565b610938611412565b6109426000611490565b565b60008060009054906101000a900473ffffffffffffffffffffffffffffffffffffffff16905090565b6000600560003373ffffffffffffffffffffffffffffffffffffffff1673ffffffffffffffffffffffffffffffffffffffff168152602001908152602001600020549050600081116109f657336040517fcaf735110000000000000000000000000000000000000000000000000000000081526004016109ed91906116ff565b60405180910390fd5b600560003373ffffffffffffffffffffffffffffffffffffffff1673ffffffffffffffffffffffffffffffffffffffff1681526020019081526020016000206000905560003373ffffffffffffffffffffffffffffffffffffffff1682604051610a5f90611a45565b60006040518083038185875af1925050503d8060008114610a9c576040519150601f19603f3d011682016040523d82523d6000602084013e610aa1565b606091505b5050905080610ae5576040517f08c379a0000000000000000000000000000000000000000000000000000000008152600401610adc90611ab7565b60405180910390fd5b5050565b60036020528060005260406000206000915054906101000a900473ffffffffffffffffffffffffffffffffffffffff1681565b60007f0000000000000000000000000000000000000000000000000000000000000000905090565b81816000600460008373ffffffffffffffffffffffffffffffffffffffff1673ffffffffffffffffffffffffffffffffffffffff1681526020019081526020016000206000848152602001908152602001600020604051806040016040529081600082015481526020016001820160009054906101000a900473ffffffffffffffffffffffffffffffffffffffff1673ffffffffffffffffffffffffffffffffffffffff1673ffffffffffffffffffffffffffffffffffffffff168152505090506000816000015111610c505782826040517f023c0df6000000000000000000000000000000000000000000000000000000008152600401610c4792919061196f565b60405180910390fd5b610c58611554565b6000600460008673ffffffffffffffffffffffffffffffffffffffff1673ffffffffffffffffffffffffffffffffffffffff1681526020019081526020016000206000878152602001908152602001600020604051806040016040529081600082015481526020016001820160009054906101000a900473ffffffffffffffffffffffffffffffffffffffff1673ffffffffffffffffffffffffffffffffffffffff1673ffffffffffffffffffffffffffffffffffffffff1681525050905080600001513414610d54576040517f2e9b21e900000000000000000000000000000000000000000000000000000000815260040160405180910390fd5b806020015173ffffffffffffffffffffffffffffffffffffffff163373ffffffffffffffffffffffffffffffffffffffff161415610dbe576040517f8455ff1600000000000000000000000000000000000000000000000000000000815260040160405180910390fd5b6000859050600460008773ffffffffffffffffffffffffffffffffffffffff1673ffffffffffffffffffffffffffffffffffffffff16815260200190815260200160002060008881526020019081526020016000206000808201600090556001820160006101000a81549073ffffffffffffffffffffffffffffffffffffffff021916905550503460056000846020015173ffffffffffffffffffffffffffffffffffffffff1673ffffffffffffffffffffffffffffffffffffffff1681526020019081526020016000206000828254610e989190611b06565b925050819055508073ffffffffffffffffffffffffffffffffffffffff166342842e0e8360200151338a6040518463ffffffff1660e01b8152600401610ee093929190611b5c565b600060405180830381600087803b158015610efa57600080fd5b505af1158015610f0e573d6000803e3d6000fd5b505050507f6a438a4150073527952c9707daf83bb1117cad2f1c5dd1238a9a9925b8f8bef233888834604051610f479493929190611b93565b60405180910390a15050610f596115a4565b5050505050565b828260008190508073ffffffffffffffffffffffffffffffffffffffff16636352211e846040518263ffffffff1660e01b8152600401610fa09190611756565b60206040518083038186803b158015610fb857600080fd5b505afa158015610fcc573d6000803e3d6000fd5b505050506040513d601f19601f82011682018060405250810190610ff09190611942565b73ffffffffffffffffffffffffffffffffffffffff163373ffffffffffffffffffffffffffffffffffffffff1614611054576040517f0dcb28ef00000000000000000000000000000000000000000000000000000000815260040160405180910390fd5b85856000600460008373ffffffffffffffffffffffffffffffffffffffff1673ffffffffffffffffffffffffffffffffffffffff1681526020019081526020016000206000848152602001908152602001600020604051806040016040529081600082015481526020016001820160009054906101000a900473ffffffffffffffffffffffffffffffffffffffff1673ffffffffffffffffffffffffffffffffffffffff1673ffffffffffffffffffffffffffffffffffffffff1681525050905060008160000151116111605782826040517f023c0df600000000000000000000000000000000000000000000000000000000815260040161115792919061196f565b60405180910390fd5b611168611554565b600087116111a2576040517f54bd28d500000000000000000000000000000000000000000000000000000000815260040160405180910390fd5b86600460008a73ffffffffffffffffffffffffffffffffffffffff1673ffffffffffffffffffffffffffffffffffffffff16815260200190815260200160002060008b8152602001908152602001600020600001819055507f21405cee36da6b7d3d65bd23c7d2866ee664e71e61502e5e03ce2604bc899ea18933898b60405161122f9493929190611998565b60405180910390a161123f6115a4565b505050505050505050565b611252611412565b600073ffffffffffffffffffffffffffffffffffffffff168173ffffffffffffffffffffffffffffffffffffffff1614156112c2576040517f08c379a00000000000000000000000000000000000000000000000000000000081526004016112b990611c4a565b60405180910390fd5b6112cb81611490565b50565b7f0000000000000000000000000000000000000000000000000000000000000000341015611328576040517f82c35bab00000000000000000000000000000000000000000000000000000000815260040160405180910390fd5b600260009054906101000a900473ffffffffffffffffffffffffffffffffffffffff1673ffffffffffffffffffffffffffffffffffffffff1663d0def52133836040518363ffffffff1660e01b8152600401611385929190611ce1565b602060405180830381600087803b15801561139f57600080fd5b505af11580156113b3573d6000803e3d6000fd5b505050506040513d601f19601f820116820180604052508101906113d79190611d26565b507f3dab64d173b82cdea212bccb7c499f8f5a25d0cc1a55c9b50875f41b9f1408433360405161140791906116ff565b60405180910390a150565b61141a6115ad565b73ffffffffffffffffffffffffffffffffffffffff16611438610944565b73ffffffffffffffffffffffffffffffffffffffff161461148e576040517f08c379a000000000000000000000000000000000000000000000000000000000815260040161148590611d9f565b60405180910390fd5b565b60008060009054906101000a900473ffffffffffffffffffffffffffffffffffffffff169050816000806101000a81548173ffffffffffffffffffffffffffffffffffffffff021916908373ffffffffffffffffffffffffffffffffffffffff1602179055508173ffffffffffffffffffffffffffffffffffffffff168173ffffffffffffffffffffffffffffffffffffffff167f8be0079c531659141344cd1fd0a4f28419497f9722a3daafe3b4186f6b6457e060405160405180910390a35050565b6002600154141561159a576040517f08c379a000000000000000000000000000000000000000000000000000000000815260040161159190611e0b565b60405180910390fd5b6002600181905550565b60018081905550565b600033905090565b6000604051905090565b600080fd5b600080fd5b6000819050919050565b6115dc816115c9565b81146115e757600080fd5b50565b6000813590506115f9816115d3565b92915050565b600073ffffffffffffffffffffffffffffffffffffffff82169050919050565b600061162a826115ff565b9050919050565b61163a8161161f565b811461164557600080fd5b50565b60008135905061165781611631565b92915050565b600080600060608486031215611676576116756115bf565b5b6000611684868287016115ea565b935050602061169586828701611648565b92505060406116a6868287016115ea565b9150509250925092565b600080604083850312156116c7576116c66115bf565b5b60006116d5858286016115ea565b92505060206116e685828601611648565b9150509250929050565b6116f98161161f565b82525050565b600060208201905061171460008301846116f0565b92915050565b6000602082840312156117305761172f6115bf565b5b600061173e848285016115ea565b91505092915050565b611750816115c9565b82525050565b600060208201905061176b6000830184611747565b92915050565b600060208284031215611787576117866115bf565b5b600061179584828501611648565b91505092915050565b600080fd5b600080fd5b6000601f19601f8301169050919050565b7f4e487b7100000000000000000000000000000000000000000000000000000000600052604160045260246000fd5b6117f1826117a8565b810181811067ffffffffffffffff821117156118105761180f6117b9565b5b80604052505050565b60006118236115b5565b905061182f82826117e8565b919050565b600067ffffffffffffffff82111561184f5761184e6117b9565b5b611858826117a8565b9050602081019050919050565b82818337600083830152505050565b600061188761188284611834565b611819565b9050828152602081018484840111156118a3576118a26117a3565b5b6118ae848285611865565b509392505050565b600082601f8301126118cb576118ca61179e565b5b81356118db848260208601611874565b91505092915050565b6000602082840312156118fa576118f96115bf565b5b600082013567ffffffffffffffff811115611918576119176115c4565b5b611924848285016118b6565b91505092915050565b60008151905061193c81611631565b92915050565b600060208284031215611958576119576115bf565b5b60006119668482850161192d565b91505092915050565b60006040820190506119846000830185611747565b61199160208301846116f0565b9392505050565b60006080820190506119ad6000830187611747565b6119ba60208301866116f0565b6119c76040830185611747565b6119d460608301846116f0565b95945050505050565b60006060820190506119f26000830186611747565b6119ff60208301856116f0565b611a0c60408301846116f0565b949350505050565b600081905092915050565b50565b6000611a2f600083611a14565b9150611a3a82611a1f565b600082019050919050565b6000611a5082611a22565b9150819050919050565b600082825260208201905092915050565b7f5769746864726177206661696c65640000000000000000000000000000000000600082015250565b6000611aa1600f83611a5a565b9150611aac82611a6b565b602082019050919050565b60006020820190508181036000830152611ad081611a94565b9050919050565b7f4e487b7100000000000000000000000000000000000000000000000000000000600052601160045260246000fd5b6000611b11826115c9565b9150611b1c836115c9565b9250827fffffffffffffffffffffffffffffffffffffffffffffffffffffffffffffffff03821115611b5157611b50611ad7565b5b828201905092915050565b6000606082019050611b7160008301866116f0565b611b7e60208301856116f0565b611b8b6040830184611747565b949350505050565b6000608082019050611ba860008301876116f0565b611bb56020830186611747565b611bc260408301856116f0565b611bcf6060830184611747565b95945050505050565b7f4f776e61626c653a206e6577206f776e657220697320746865207a65726f206160008201527f6464726573730000000000000000000000000000000000000000000000000000602082015250565b6000611c34602683611a5a565b9150611c3f82611bd8565b604082019050919050565b60006020820190508181036000830152611c6381611c27565b9050919050565b600081519050919050565b60005b83811015611c93578082015181840152602081019050611c78565b83811115611ca2576000848401525b50505050565b6000611cb382611c6a565b611cbd8185611a5a565b9350611ccd818560208601611c75565b611cd6816117a8565b840191505092915050565b6000604082019050611cf660008301856116f0565b8181036020830152611d088184611ca8565b90509392505050565b600081519050611d20816115d3565b92915050565b600060208284031215611d3c57611d3b6115bf565b5b6000611d4a84828501611d11565b91505092915050565b7f4f776e61626c653a2063616c6c6572206973206e6f7420746865206f776e6572600082015250565b6000611d89602083611a5a565b9150611d9482611d53565b602082019050919050565b60006020820190508181036000830152611db881611d7c565b9050919050565b7f5265656e7472616e637947756172643a207265656e7472616e742063616c6c00600082015250565b6000611df5601f83611a5a565b9150611e0082611dbf565b602082019050919050565b60006020820190508181036000830152611e2481611de8565b905091905056fea264697066735822122001ed11da61f675082d98a9d193d8db1b8c0822c3720aec42abb00b1b14c7faa264736f6c63430008090033",
  "devdoc": {
    "kind": "dev",
    "methods": {
      "owner()": {
        "details": "Returns the address of the current owner."
      },
      "renounceOwnership()": {
        "details": "Leaves the contract without owner. It will not be possible to call `onlyOwner` functions anymore. Can only be called by the current owner. NOTE: Renouncing ownership will leave the contract without an owner, thereby removing any functionality that is only available to the owner."
      },
      "transferOwnership(address)": {
        "details": "Transfers ownership of the contract to a new account (`newOwner`). Can only be called by the current owner."
      }
    },
    "version": 1
  },
  "userdoc": {
    "kind": "user",
    "methods": {},
    "version": 1
  },
  "storageLayout": {
    "storage": [
      {
        "astId": 7,
        "contract": "contracts/NftMarketplace.sol:NftMarketplace",
        "label": "_owner",
        "offset": 0,
        "slot": "0",
        "type": "t_address"
      },
      {
        "astId": 123,
        "contract": "contracts/NftMarketplace.sol:NftMarketplace",
        "label": "_status",
        "offset": 0,
        "slot": "1",
        "type": "t_uint256"
      },
      {
        "astId": 3004,
        "contract": "contracts/NftMarketplace.sol:NftMarketplace",
        "label": "nftContract",
        "offset": 0,
        "slot": "2",
        "type": "t_contract(Nft)2950"
      },
      {
        "astId": 3008,
        "contract": "contracts/NftMarketplace.sol:NftMarketplace",
        "label": "s_requestIdToSender",
        "offset": 0,
        "slot": "3",
        "type": "t_mapping(t_uint256,t_address)"
      },
      {
        "astId": 3015,
        "contract": "contracts/NftMarketplace.sol:NftMarketplace",
        "label": "s_listings",
        "offset": 0,
        "slot": "4",
        "type": "t_mapping(t_address,t_mapping(t_uint256,t_struct(Listing)2993_storage))"
      },
      {
        "astId": 3019,
        "contract": "contracts/NftMarketplace.sol:NftMarketplace",
        "label": "s_proceedings",
        "offset": 0,
        "slot": "5",
        "type": "t_mapping(t_address,t_uint256)"
      }
    ],
    "types": {
      "t_address": {
        "encoding": "inplace",
        "label": "address",
        "numberOfBytes": "20"
      },
      "t_contract(Nft)2950": {
        "encoding": "inplace",
        "label": "contract Nft",
        "numberOfBytes": "20"
      },
      "t_mapping(t_address,t_mapping(t_uint256,t_struct(Listing)2993_storage))": {
        "encoding": "mapping",
        "key": "t_address",
        "label": "mapping(address => mapping(uint256 => struct NftMarketplace.Listing))",
        "numberOfBytes": "32",
        "value": "t_mapping(t_uint256,t_struct(Listing)2993_storage)"
      },
      "t_mapping(t_address,t_uint256)": {
        "encoding": "mapping",
        "key": "t_address",
        "label": "mapping(address => uint256)",
        "numberOfBytes": "32",
        "value": "t_uint256"
      },
      "t_mapping(t_uint256,t_address)": {
        "encoding": "mapping",
        "key": "t_uint256",
        "label": "mapping(uint256 => address)",
        "numberOfBytes": "32",
        "value": "t_address"
      },
      "t_mapping(t_uint256,t_struct(Listing)2993_storage)": {
        "encoding": "mapping",
        "key": "t_uint256",
        "label": "mapping(uint256 => struct NftMarketplace.Listing)",
        "numberOfBytes": "32",
        "value": "t_struct(Listing)2993_storage"
      },
      "t_struct(Listing)2993_storage": {
        "encoding": "inplace",
        "label": "struct NftMarketplace.Listing",
        "members": [
          {
            "astId": 2990,
            "contract": "contracts/NftMarketplace.sol:NftMarketplace",
            "label": "price",
            "offset": 0,
            "slot": "0",
            "type": "t_uint256"
          },
          {
            "astId": 2992,
            "contract": "contracts/NftMarketplace.sol:NftMarketplace",
            "label": "seller",
            "offset": 0,
            "slot": "1",
            "type": "t_address"
          }
        ],
        "numberOfBytes": "64"
      },
      "t_uint256": {
        "encoding": "inplace",
        "label": "uint256",
        "numberOfBytes": "32"
      }
    }
  }
}