{
  "address": "0x825E3aA49dc594b34527913d370A362e6b5c49c6",
  "abi": [
    {
      "inputs": [
        {
          "internalType": "address",
          "name": "nftContractAddress",
          "type": "address"
        },
        {
          "internalType": "uint256",
          "name": "mintingFee",
          "type": "uint256"
        }
      ],
      "stateMutability": "nonpayable",
      "type": "constructor"
    },
    {
      "inputs": [],
      "name": "NftMarketplace__IncorrectPrice",
      "type": "error"
    },
    {
      "inputs": [],
      "name": "NftMarketplace__InsufficientFunds",
      "type": "error"
    },
    {
      "inputs": [
        {
          "internalType": "uint256",
          "name": "nftId",
          "type": "uint256"
        },
        {
          "internalType": "address",
          "name": "nftAddress",
          "type": "address"
        }
      ],
      "name": "NftMarketplace__ItemAlreadyListed",
      "type": "error"
    },
    {
      "inputs": [
        {
          "internalType": "uint256",
          "name": "nftId",
          "type": "uint256"
        },
        {
          "internalType": "address",
          "name": "nftAddress",
          "type": "address"
        }
      ],
      "name": "NftMarketplace__ItemNotListed",
      "type": "error"
    },
    {
      "inputs": [],
      "name": "NftMarketplace__NoPriceSetForListing",
      "type": "error"
    },
    {
      "inputs": [
        {
          "internalType": "address",
          "name": "",
          "type": "address"
        }
      ],
      "name": "NftMarketplace__NoProceedingsToWithdraw",
      "type": "error"
    },
    {
      "inputs": [],
      "name": "NftMarketplace__NotApprovedForMarketplace",
      "type": "error"
    },
    {
      "inputs": [],
      "name": "NftMarketplace__SellerCannotBeBuyer",
      "type": "error"
    },
    {
      "inputs": [],
      "name": "NftMarketplace__Unauthorized",
      "type": "error"
    },
    {
      "anonymous": false,
      "inputs": [
        {
          "indexed": false,
          "internalType": "uint256",
          "name": "nftId",
          "type": "uint256"
        },
        {
          "indexed": false,
          "internalType": "address",
          "name": "owner",
          "type": "address"
        },
        {
          "indexed": false,
          "internalType": "uint256",
          "name": "price",
          "type": "uint256"
        },
        {
          "indexed": false,
          "internalType": "address",
          "name": "ierc721TokenAddress",
          "type": "address"
        }
      ],
      "name": "NftListed",
      "type": "event"
    },
    {
      "anonymous": false,
      "inputs": [
        {
          "indexed": false,
          "internalType": "uint256",
          "name": "nftId",
          "type": "uint256"
        },
        {
          "indexed": false,
          "internalType": "address",
          "name": "owner",
          "type": "address"
        },
        {
          "indexed": false,
          "internalType": "address",
          "name": "ierc721TokenAddress",
          "type": "address"
        }
      ],
      "name": "NftListingCancelled",
      "type": "event"
    },
    {
      "anonymous": false,
      "inputs": [
        {
          "indexed": false,
          "internalType": "uint256",
          "name": "nftId",
          "type": "uint256"
        },
        {
          "indexed": false,
          "internalType": "address",
          "name": "owner",
          "type": "address"
        },
        {
          "indexed": false,
          "internalType": "uint256",
          "name": "price",
          "type": "uint256"
        },
        {
          "indexed": false,
          "internalType": "address",
          "name": "ierc721TokenAddress",
          "type": "address"
        }
      ],
      "name": "NftListingUpdated",
      "type": "event"
    },
    {
      "anonymous": false,
      "inputs": [
        {
          "indexed": false,
          "internalType": "address",
          "name": "owner",
          "type": "address"
        },
        {
          "indexed": false,
          "internalType": "uint256",
          "name": "tokenId",
          "type": "uint256"
        }
      ],
      "name": "NftMinted",
      "type": "event"
    },
    {
      "anonymous": false,
      "inputs": [
        {
          "indexed": false,
          "internalType": "address",
          "name": "requester",
          "type": "address"
        }
      ],
      "name": "NftRequested",
      "type": "event"
    },
    {
      "anonymous": false,
      "inputs": [
        {
          "indexed": false,
          "internalType": "address",
          "name": "owner",
          "type": "address"
        },
        {
          "indexed": false,
          "internalType": "uint256",
          "name": "nftId",
          "type": "uint256"
        },
        {
          "indexed": false,
          "internalType": "address",
          "name": "ierc721TokenAddress",
          "type": "address"
        },
        {
          "indexed": false,
          "internalType": "uint256",
          "name": "price",
          "type": "uint256"
        }
      ],
      "name": "NftSold",
      "type": "event"
    },
    {
      "anonymous": false,
      "inputs": [
        {
          "indexed": true,
          "internalType": "address",
          "name": "previousOwner",
          "type": "address"
        },
        {
          "indexed": true,
          "internalType": "address",
          "name": "newOwner",
          "type": "address"
        }
      ],
      "name": "OwnershipTransferred",
      "type": "event"
    },
    {
      "inputs": [
        {
          "internalType": "uint256",
          "name": "nftId",
          "type": "uint256"
        },
        {
          "internalType": "address",
          "name": "ierc721TokenAddress",
          "type": "address"
        }
      ],
      "name": "buyNft",
      "outputs": [],
      "stateMutability": "payable",
      "type": "function"
    },
    {
      "inputs": [
        {
          "internalType": "uint256",
          "name": "nftId",
          "type": "uint256"
        },
        {
          "internalType": "address",
          "name": "ierc721TokenAddress",
          "type": "address"
        }
      ],
      "name": "cancelListing",
      "outputs": [],
      "stateMutability": "nonpayable",
      "type": "function"
    },
    {
      "inputs": [],
      "name": "gatekeep",
      "outputs": [],
      "stateMutability": "payable",
      "type": "function"
    },
    {
      "inputs": [],
      "name": "getMintingFee",
      "outputs": [
        {
          "internalType": "uint256",
          "name": "",
          "type": "uint256"
        }
      ],
      "stateMutability": "view",
      "type": "function"
    },
    {
      "inputs": [
        {
          "internalType": "uint256",
          "name": "nftId",
          "type": "uint256"
        },
        {
          "internalType": "address",
          "name": "ierc721TokenAddress",
          "type": "address"
        },
        {
          "internalType": "uint256",
          "name": "price",
          "type": "uint256"
        }
      ],
      "name": "listNft",
      "outputs": [],
      "stateMutability": "payable",
      "type": "function"
    },
    {
      "inputs": [
        {
          "internalType": "string",
          "name": "ipfsHash",
          "type": "string"
        },
        {
          "internalType": "address",
          "name": "owner",
          "type": "address"
        }
      ],
      "name": "mintNft",
      "outputs": [],
      "stateMutability": "nonpayable",
      "type": "function"
    },
    {
      "inputs": [],
      "name": "owner",
      "outputs": [
        {
          "internalType": "address",
          "name": "",
          "type": "address"
        }
      ],
      "stateMutability": "view",
      "type": "function"
    },
    {
      "inputs": [],
      "name": "renounceOwnership",
      "outputs": [],
      "stateMutability": "nonpayable",
      "type": "function"
    },
    {
      "inputs": [
        {
          "internalType": "uint256",
          "name": "",
          "type": "uint256"
        }
      ],
      "name": "s_requestIdToSender",
      "outputs": [
        {
          "internalType": "address",
          "name": "",
          "type": "address"
        }
      ],
      "stateMutability": "view",
      "type": "function"
    },
    {
      "inputs": [
        {
          "internalType": "address",
          "name": "newOwner",
          "type": "address"
        }
      ],
      "name": "transferOwnership",
      "outputs": [],
      "stateMutability": "nonpayable",
      "type": "function"
    },
    {
      "inputs": [
        {
          "internalType": "uint256",
          "name": "nftId",
          "type": "uint256"
        },
        {
          "internalType": "address",
          "name": "ierc721TokenAddress",
          "type": "address"
        },
        {
          "internalType": "uint256",
          "name": "price",
          "type": "uint256"
        }
      ],
      "name": "updateListing",
      "outputs": [],
      "stateMutability": "payable",
      "type": "function"
    },
    {
      "inputs": [],
      "name": "withdrawProceedings",
      "outputs": [],
      "stateMutability": "nonpayable",
      "type": "function"
    }
  ],
  "transactionHash": "0x11d525927fc7f6873407cf6efac08ec5d007afb4ac430657ad81773e6dbbc8cf",
  "args": [
    "0x87748FC2073F22Fb313aF8366b50E29d3F52214C",
    "10000000000000000"
  ],
  "numDeployments": 1,
  "solcInputHash": "18a123c640fa7b67f59a0fd3bb8e137f",
  "bytecode": "0x60a06040523480156200001157600080fd5b506040516200219138038062002191833981810160405281019062000037919062000220565b620000576200004b620000af60201b60201c565b620000b760201b60201c565b6001808190555081600260006101000a81548173ffffffffffffffffffffffffffffffffffffffff021916908373ffffffffffffffffffffffffffffffffffffffff1602179055508060808181525050505062000267565b600033905090565b60008060009054906101000a900473ffffffffffffffffffffffffffffffffffffffff169050816000806101000a81548173ffffffffffffffffffffffffffffffffffffffff021916908373ffffffffffffffffffffffffffffffffffffffff1602179055508173ffffffffffffffffffffffffffffffffffffffff168173ffffffffffffffffffffffffffffffffffffffff167f8be0079c531659141344cd1fd0a4f28419497f9722a3daafe3b4186f6b6457e060405160405180910390a35050565b600080fd5b600073ffffffffffffffffffffffffffffffffffffffff82169050919050565b6000620001ad8262000180565b9050919050565b620001bf81620001a0565b8114620001cb57600080fd5b50565b600081519050620001df81620001b4565b92915050565b6000819050919050565b620001fa81620001e5565b81146200020657600080fd5b50565b6000815190506200021a81620001ef565b92915050565b600080604083850312156200023a57620002396200017b565b5b60006200024a85828601620001ce565b92505060206200025d8582860162000209565b9150509250929050565b608051611f076200028a600039600081816102480152610cce0152611f076000f3fe6080604052600436106100a75760003560e01c8063944a3bb311610064578063944a3bb314610166578063a36f573b1461017d578063b59d88a9146101ba578063bc3ad145146101e5578063edebf26a14610201578063f2fde38b1461021d576100a7565b806313123f3c146100ac5780631c8b45c3146100b65780634567187f146100df57806360101d3a146100fb578063715018a6146101245780638da5cb5b1461013b575b600080fd5b6100b4610246565b005b3480156100c257600080fd5b506100dd60048036038101906100d891906117d7565b6102d9565b005b6100f960048036038101906100f49190611869565b6103d2565b005b34801561010757600080fd5b50610122600480360381019061011d91906118bc565b610817565b005b34801561013057600080fd5b50610139610ade565b005b34801561014757600080fd5b50610150610af2565b60405161015d919061190b565b60405180910390f35b34801561017257600080fd5b5061017b610b1b565b005b34801561018957600080fd5b506101a4600480360381019061019f9190611926565b610c97565b6040516101b1919061190b565b60405180910390f35b3480156101c657600080fd5b506101cf610cca565b6040516101dc9190611962565b60405180910390f35b6101ff60048036038101906101fa91906118bc565b610cf2565b005b61021b60048036038101906102169190611869565b61110e565b005b34801561022957600080fd5b50610244600480360381019061023f919061197d565b6113f8565b005b7f00000000000000000000000000000000000000000000000000000000000000003410156102a0576040517f82c35bab00000000000000000000000000000000000000000000000000000000815260040160405180910390fd5b7fa2d573a5ffbecd36ba5b0d27aacc103803ffd389e0828d722dee87bf357110c1336040516102cf919061190b565b60405180910390a1565b6102e161147c565b6000600260009054906101000a900473ffffffffffffffffffffffffffffffffffffffff1673ffffffffffffffffffffffffffffffffffffffff1663d0def52183856040518363ffffffff1660e01b8152600401610340929190611a32565b602060405180830381600087803b15801561035a57600080fd5b505af115801561036e573d6000803e3d6000fd5b505050506040513d601f19601f820116820180604052508101906103929190611a77565b90507ff2b290a76feb54be358b555507421d765609171aefa0646f109a653228ff81b882826040516103c5929190611aa4565b60405180910390a1505050565b828260008190508073ffffffffffffffffffffffffffffffffffffffff16636352211e846040518263ffffffff1660e01b81526004016104129190611962565b60206040518083038186803b15801561042a57600080fd5b505afa15801561043e573d6000803e3d6000fd5b505050506040513d601f19601f820116820180604052508101906104629190611ae2565b73ffffffffffffffffffffffffffffffffffffffff163373ffffffffffffffffffffffffffffffffffffffff16146104c6576040517f0dcb28ef00000000000000000000000000000000000000000000000000000000815260040160405180910390fd5b85856000600460008373ffffffffffffffffffffffffffffffffffffffff1673ffffffffffffffffffffffffffffffffffffffff1681526020019081526020016000206000848152602001908152602001600020604051806040016040529081600082015481526020016001820160009054906101000a900473ffffffffffffffffffffffffffffffffffffffff1673ffffffffffffffffffffffffffffffffffffffff1673ffffffffffffffffffffffffffffffffffffffff168152505090506000816000015111156105d35782826040517fdb346fd40000000000000000000000000000000000000000000000000000000081526004016105ca929190611b0f565b60405180910390fd5b6000871161060d576040517f54bd28d500000000000000000000000000000000000000000000000000000000815260040160405180910390fd5b60008890503073ffffffffffffffffffffffffffffffffffffffff168173ffffffffffffffffffffffffffffffffffffffff1663081812fc8c6040518263ffffffff1660e01b81526004016106629190611962565b60206040518083038186803b15801561067a57600080fd5b505afa15801561068e573d6000803e3d6000fd5b505050506040513d601f19601f820116820180604052508101906106b29190611ae2565b73ffffffffffffffffffffffffffffffffffffffff16146106ff576040517f13e7d28d00000000000000000000000000000000000000000000000000000000815260040160405180910390fd5b60405180604001604052808981526020013373ffffffffffffffffffffffffffffffffffffffff16815250600460008b73ffffffffffffffffffffffffffffffffffffffff1673ffffffffffffffffffffffffffffffffffffffff16815260200190815260200160002060008c81526020019081526020016000206000820151816000015560208201518160010160006101000a81548173ffffffffffffffffffffffffffffffffffffffff021916908373ffffffffffffffffffffffffffffffffffffffff1602179055509050507fa73f098d534edf6a52cdd2dc3267f38c9ea91942807d75a85fd97a9adbddffc98a338a8c6040516108039493929190611b38565b60405180910390a150505050505050505050565b818160008190508073ffffffffffffffffffffffffffffffffffffffff16636352211e846040518263ffffffff1660e01b81526004016108579190611962565b60206040518083038186803b15801561086f57600080fd5b505afa158015610883573d6000803e3d6000fd5b505050506040513d601f19601f820116820180604052508101906108a79190611ae2565b73ffffffffffffffffffffffffffffffffffffffff163373ffffffffffffffffffffffffffffffffffffffff161461090b576040517f0dcb28ef00000000000000000000000000000000000000000000000000000000815260040160405180910390fd5b84846000600460008373ffffffffffffffffffffffffffffffffffffffff1673ffffffffffffffffffffffffffffffffffffffff1681526020019081526020016000206000848152602001908152602001600020604051806040016040529081600082015481526020016001820160009054906101000a900473ffffffffffffffffffffffffffffffffffffffff1673ffffffffffffffffffffffffffffffffffffffff1673ffffffffffffffffffffffffffffffffffffffff168152505090506000816000015111610a175782826040517f023c0df6000000000000000000000000000000000000000000000000000000008152600401610a0e929190611b0f565b60405180910390fd5b600460008873ffffffffffffffffffffffffffffffffffffffff1673ffffffffffffffffffffffffffffffffffffffff16815260200190815260200160002060008981526020019081526020016000206000808201600090556001820160006101000a81549073ffffffffffffffffffffffffffffffffffffffff021916905550507f7404f84749a8586c35ac6fbe72e3621fd06cb4356e32011b11841a438aa3a9a5883389604051610acc93929190611b7d565b60405180910390a15050505050505050565b610ae661147c565b610af060006114fa565b565b60008060009054906101000a900473ffffffffffffffffffffffffffffffffffffffff16905090565b6000600560003373ffffffffffffffffffffffffffffffffffffffff1673ffffffffffffffffffffffffffffffffffffffff16815260200190815260200160002054905060008111610ba457336040517fcaf73511000000000000000000000000000000000000000000000000000000008152600401610b9b919061190b565b60405180910390fd5b600560003373ffffffffffffffffffffffffffffffffffffffff1673ffffffffffffffffffffffffffffffffffffffff1681526020019081526020016000206000905560003373ffffffffffffffffffffffffffffffffffffffff1682604051610c0d90611be5565b60006040518083038185875af1925050503d8060008114610c4a576040519150601f19603f3d011682016040523d82523d6000602084013e610c4f565b606091505b5050905080610c93576040517f08c379a0000000000000000000000000000000000000000000000000000000008152600401610c8a90611c46565b60405180910390fd5b5050565b60036020528060005260406000206000915054906101000a900473ffffffffffffffffffffffffffffffffffffffff1681565b60007f0000000000000000000000000000000000000000000000000000000000000000905090565b81816000600460008373ffffffffffffffffffffffffffffffffffffffff1673ffffffffffffffffffffffffffffffffffffffff1681526020019081526020016000206000848152602001908152602001600020604051806040016040529081600082015481526020016001820160009054906101000a900473ffffffffffffffffffffffffffffffffffffffff1673ffffffffffffffffffffffffffffffffffffffff1673ffffffffffffffffffffffffffffffffffffffff168152505090506000816000015111610dfe5782826040517f023c0df6000000000000000000000000000000000000000000000000000000008152600401610df5929190611b0f565b60405180910390fd5b610e066115be565b6000600460008673ffffffffffffffffffffffffffffffffffffffff1673ffffffffffffffffffffffffffffffffffffffff1681526020019081526020016000206000878152602001908152602001600020604051806040016040529081600082015481526020016001820160009054906101000a900473ffffffffffffffffffffffffffffffffffffffff1673ffffffffffffffffffffffffffffffffffffffff1673ffffffffffffffffffffffffffffffffffffffff1681525050905080600001513414610f02576040517f2e9b21e900000000000000000000000000000000000000000000000000000000815260040160405180910390fd5b806020015173ffffffffffffffffffffffffffffffffffffffff163373ffffffffffffffffffffffffffffffffffffffff161415610f6c576040517f8455ff1600000000000000000000000000000000000000000000000000000000815260040160405180910390fd5b6000859050600460008773ffffffffffffffffffffffffffffffffffffffff1673ffffffffffffffffffffffffffffffffffffffff16815260200190815260200160002060008881526020019081526020016000206000808201600090556001820160006101000a81549073ffffffffffffffffffffffffffffffffffffffff021916905550503460056000846020015173ffffffffffffffffffffffffffffffffffffffff1673ffffffffffffffffffffffffffffffffffffffff16815260200190815260200160002060008282546110469190611c95565b925050819055508073ffffffffffffffffffffffffffffffffffffffff166342842e0e8360200151338a6040518463ffffffff1660e01b815260040161108e93929190611ceb565b600060405180830381600087803b1580156110a857600080fd5b505af11580156110bc573d6000803e3d6000fd5b505050507f6a438a4150073527952c9707daf83bb1117cad2f1c5dd1238a9a9925b8f8bef2338888346040516110f59493929190611d22565b60405180910390a1505061110761160e565b5050505050565b828260008190508073ffffffffffffffffffffffffffffffffffffffff16636352211e846040518263ffffffff1660e01b815260040161114e9190611962565b60206040518083038186803b15801561116657600080fd5b505afa15801561117a573d6000803e3d6000fd5b505050506040513d601f19601f8201168201806040525081019061119e9190611ae2565b73ffffffffffffffffffffffffffffffffffffffff163373ffffffffffffffffffffffffffffffffffffffff1614611202576040517f0dcb28ef00000000000000000000000000000000000000000000000000000000815260040160405180910390fd5b85856000600460008373ffffffffffffffffffffffffffffffffffffffff1673ffffffffffffffffffffffffffffffffffffffff1681526020019081526020016000206000848152602001908152602001600020604051806040016040529081600082015481526020016001820160009054906101000a900473ffffffffffffffffffffffffffffffffffffffff1673ffffffffffffffffffffffffffffffffffffffff1673ffffffffffffffffffffffffffffffffffffffff16815250509050600081600001511161130e5782826040517f023c0df6000000000000000000000000000000000000000000000000000000008152600401611305929190611b0f565b60405180910390fd5b6113166115be565b60008711611350576040517f54bd28d500000000000000000000000000000000000000000000000000000000815260040160405180910390fd5b86600460008a73ffffffffffffffffffffffffffffffffffffffff1673ffffffffffffffffffffffffffffffffffffffff16815260200190815260200160002060008b8152602001908152602001600020600001819055507f21405cee36da6b7d3d65bd23c7d2866ee664e71e61502e5e03ce2604bc899ea18933898b6040516113dd9493929190611b38565b60405180910390a16113ed61160e565b505050505050505050565b61140061147c565b600073ffffffffffffffffffffffffffffffffffffffff168173ffffffffffffffffffffffffffffffffffffffff161415611470576040517f08c379a000000000000000000000000000000000000000000000000000000000815260040161146790611dd9565b60405180910390fd5b611479816114fa565b50565b611484611617565b73ffffffffffffffffffffffffffffffffffffffff166114a2610af2565b73ffffffffffffffffffffffffffffffffffffffff16146114f8576040517f08c379a00000000000000000000000000000000000000000000000000000000081526004016114ef90611e45565b60405180910390fd5b565b60008060009054906101000a900473ffffffffffffffffffffffffffffffffffffffff169050816000806101000a81548173ffffffffffffffffffffffffffffffffffffffff021916908373ffffffffffffffffffffffffffffffffffffffff1602179055508173ffffffffffffffffffffffffffffffffffffffff168173ffffffffffffffffffffffffffffffffffffffff167f8be0079c531659141344cd1fd0a4f28419497f9722a3daafe3b4186f6b6457e060405160405180910390a35050565b60026001541415611604576040517f08c379a00000000000000000000000000000000000000000000000000000000081526004016115fb90611eb1565b60405180910390fd5b6002600181905550565b60018081905550565b600033905090565b6000604051905090565b600080fd5b600080fd5b600080fd5b600080fd5b6000601f19601f8301169050919050565b7f4e487b7100000000000000000000000000000000000000000000000000000000600052604160045260246000fd5b6116868261163d565b810181811067ffffffffffffffff821117156116a5576116a461164e565b5b80604052505050565b60006116b861161f565b90506116c4828261167d565b919050565b600067ffffffffffffffff8211156116e4576116e361164e565b5b6116ed8261163d565b9050602081019050919050565b82818337600083830152505050565b600061171c611717846116c9565b6116ae565b90508281526020810184848401111561173857611737611638565b5b6117438482856116fa565b509392505050565b600082601f8301126117605761175f611633565b5b8135611770848260208601611709565b91505092915050565b600073ffffffffffffffffffffffffffffffffffffffff82169050919050565b60006117a482611779565b9050919050565b6117b481611799565b81146117bf57600080fd5b50565b6000813590506117d1816117ab565b92915050565b600080604083850312156117ee576117ed611629565b5b600083013567ffffffffffffffff81111561180c5761180b61162e565b5b6118188582860161174b565b9250506020611829858286016117c2565b9150509250929050565b6000819050919050565b61184681611833565b811461185157600080fd5b50565b6000813590506118638161183d565b92915050565b60008060006060848603121561188257611881611629565b5b600061189086828701611854565b93505060206118a1868287016117c2565b92505060406118b286828701611854565b9150509250925092565b600080604083850312156118d3576118d2611629565b5b60006118e185828601611854565b92505060206118f2858286016117c2565b9150509250929050565b61190581611799565b82525050565b600060208201905061192060008301846118fc565b92915050565b60006020828403121561193c5761193b611629565b5b600061194a84828501611854565b91505092915050565b61195c81611833565b82525050565b60006020820190506119776000830184611953565b92915050565b60006020828403121561199357611992611629565b5b60006119a1848285016117c2565b91505092915050565b600081519050919050565b600082825260208201905092915050565b60005b838110156119e45780820151818401526020810190506119c9565b838111156119f3576000848401525b50505050565b6000611a04826119aa565b611a0e81856119b5565b9350611a1e8185602086016119c6565b611a278161163d565b840191505092915050565b6000604082019050611a4760008301856118fc565b8181036020830152611a5981846119f9565b90509392505050565b600081519050611a718161183d565b92915050565b600060208284031215611a8d57611a8c611629565b5b6000611a9b84828501611a62565b91505092915050565b6000604082019050611ab960008301856118fc565b611ac66020830184611953565b9392505050565b600081519050611adc816117ab565b92915050565b600060208284031215611af857611af7611629565b5b6000611b0684828501611acd565b91505092915050565b6000604082019050611b246000830185611953565b611b3160208301846118fc565b9392505050565b6000608082019050611b4d6000830187611953565b611b5a60208301866118fc565b611b676040830185611953565b611b7460608301846118fc565b95945050505050565b6000606082019050611b926000830186611953565b611b9f60208301856118fc565b611bac60408301846118fc565b949350505050565b600081905092915050565b50565b6000611bcf600083611bb4565b9150611bda82611bbf565b600082019050919050565b6000611bf082611bc2565b9150819050919050565b7f5769746864726177206661696c65640000000000000000000000000000000000600082015250565b6000611c30600f836119b5565b9150611c3b82611bfa565b602082019050919050565b60006020820190508181036000830152611c5f81611c23565b9050919050565b7f4e487b7100000000000000000000000000000000000000000000000000000000600052601160045260246000fd5b6000611ca082611833565b9150611cab83611833565b9250827fffffffffffffffffffffffffffffffffffffffffffffffffffffffffffffffff03821115611ce057611cdf611c66565b5b828201905092915050565b6000606082019050611d0060008301866118fc565b611d0d60208301856118fc565b611d1a6040830184611953565b949350505050565b6000608082019050611d3760008301876118fc565b611d446020830186611953565b611d5160408301856118fc565b611d5e6060830184611953565b95945050505050565b7f4f776e61626c653a206e6577206f776e657220697320746865207a65726f206160008201527f6464726573730000000000000000000000000000000000000000000000000000602082015250565b6000611dc36026836119b5565b9150611dce82611d67565b604082019050919050565b60006020820190508181036000830152611df281611db6565b9050919050565b7f4f776e61626c653a2063616c6c6572206973206e6f7420746865206f776e6572600082015250565b6000611e2f6020836119b5565b9150611e3a82611df9565b602082019050919050565b60006020820190508181036000830152611e5e81611e22565b9050919050565b7f5265656e7472616e637947756172643a207265656e7472616e742063616c6c00600082015250565b6000611e9b601f836119b5565b9150611ea682611e65565b602082019050919050565b60006020820190508181036000830152611eca81611e8e565b905091905056fea26469706673582212208046d498016862481e9be51ee517198ac644c6d305f84aff51cbed7d9fcebd1564736f6c63430008090033",
  "devdoc": {
    "kind": "dev",
    "methods": {
      "owner()": {
        "details": "Returns the address of the current owner."
      },
      "renounceOwnership()": {
        "details": "Leaves the contract without owner. It will not be possible to call `onlyOwner` functions anymore. Can only be called by the current owner. NOTE: Renouncing ownership will leave the contract without an owner, thereby removing any functionality that is only available to the owner."
      },
      "transferOwnership(address)": {
        "details": "Transfers ownership of the contract to a new account (`newOwner`). Can only be called by the current owner."
      }
    },
    "version": 1
  },
  "userdoc": {
    "kind": "user",
    "methods": {},
    "version": 1
  },
  "storageLayout": {
    "storage": [
      {
        "astId": 161,
        "contract": "contracts/NftMarketplace.sol:NftMarketplace",
        "label": "_owner",
        "offset": 0,
        "slot": "0",
        "type": "t_address"
      },
      {
        "astId": 277,
        "contract": "contracts/NftMarketplace.sol:NftMarketplace",
        "label": "_status",
        "offset": 0,
        "slot": "1",
        "type": "t_uint256"
      },
      {
        "astId": 3354,
        "contract": "contracts/NftMarketplace.sol:NftMarketplace",
        "label": "nftContract",
        "offset": 0,
        "slot": "2",
        "type": "t_contract(Nft)3104"
      },
      {
        "astId": 3358,
        "contract": "contracts/NftMarketplace.sol:NftMarketplace",
        "label": "s_requestIdToSender",
        "offset": 0,
        "slot": "3",
        "type": "t_mapping(t_uint256,t_address)"
      },
      {
        "astId": 3365,
        "contract": "contracts/NftMarketplace.sol:NftMarketplace",
        "label": "s_listings",
        "offset": 0,
        "slot": "4",
        "type": "t_mapping(t_address,t_mapping(t_uint256,t_struct(Listing)3343_storage))"
      },
      {
        "astId": 3369,
        "contract": "contracts/NftMarketplace.sol:NftMarketplace",
        "label": "s_proceedings",
        "offset": 0,
        "slot": "5",
        "type": "t_mapping(t_address,t_uint256)"
      }
    ],
    "types": {
      "t_address": {
        "encoding": "inplace",
        "label": "address",
        "numberOfBytes": "20"
      },
      "t_contract(Nft)3104": {
        "encoding": "inplace",
        "label": "contract Nft",
        "numberOfBytes": "20"
      },
      "t_mapping(t_address,t_mapping(t_uint256,t_struct(Listing)3343_storage))": {
        "encoding": "mapping",
        "key": "t_address",
        "label": "mapping(address => mapping(uint256 => struct NftMarketplace.Listing))",
        "numberOfBytes": "32",
        "value": "t_mapping(t_uint256,t_struct(Listing)3343_storage)"
      },
      "t_mapping(t_address,t_uint256)": {
        "encoding": "mapping",
        "key": "t_address",
        "label": "mapping(address => uint256)",
        "numberOfBytes": "32",
        "value": "t_uint256"
      },
      "t_mapping(t_uint256,t_address)": {
        "encoding": "mapping",
        "key": "t_uint256",
        "label": "mapping(uint256 => address)",
        "numberOfBytes": "32",
        "value": "t_address"
      },
      "t_mapping(t_uint256,t_struct(Listing)3343_storage)": {
        "encoding": "mapping",
        "key": "t_uint256",
        "label": "mapping(uint256 => struct NftMarketplace.Listing)",
        "numberOfBytes": "32",
        "value": "t_struct(Listing)3343_storage"
      },
      "t_struct(Listing)3343_storage": {
        "encoding": "inplace",
        "label": "struct NftMarketplace.Listing",
        "members": [
          {
            "astId": 3340,
            "contract": "contracts/NftMarketplace.sol:NftMarketplace",
            "label": "price",
            "offset": 0,
            "slot": "0",
            "type": "t_uint256"
          },
          {
            "astId": 3342,
            "contract": "contracts/NftMarketplace.sol:NftMarketplace",
            "label": "seller",
            "offset": 0,
            "slot": "1",
            "type": "t_address"
          }
        ],
        "numberOfBytes": "64"
      },
      "t_uint256": {
        "encoding": "inplace",
        "label": "uint256",
        "numberOfBytes": "32"
      }
    }
  }
}